:020000040800F2
:1000000078040020A101000821090008D90800088F
:100010001D09000889020008D90C00080000000032
:10002000000000000000000000000000250900089A
:10003000110300080000000023090008B9010008AE
:10004000BB010008BB010008BB010008BB010008A0
:10005000BB010008BB01000815030008BB01000834
:10006000BB01000855030008ED030008BB010008B0
:10007000BB010008BB010008BB010008BB01000870
:10008000BB010008BB010008BB010008BB01000860
:10009000BB010008BB010008BB010008BB01000850
:1000A000BB010008890A0008BB010008BB01000869
:1000B000BB010008BB010008BB010008BB01000830
:1000C000BB010008BB010008BB010008BB01000820
:1000D000BB010008D10A0008BB010008BB010008F1
:1000E000BB010008BB010008BB010008BB01000800
:1000F000BB010008BB010008BB010008BB010008F0
:10010000BB010008BB010008BB010008BB010008DF
:10011000BB010008BB010008B10A0008BB010008D0
:100120008D020008BB010008BB010008BB010008EC
:10013000BB010008BB010008BB010008BB010008AF
:10014000BB010008BB010008BB010008BB0100089F
:10015000AD020008BB010008E1020008BB01000875
:10016000BB010008BB010008BB010008BB0100087F
:10017000BB010008BB010008BB010008BB0100086F
:10018000BB010008BB010008DFF810D000F05AF8EE
:100190000048004745100008AFF3008078040020B5
:1001A0000648804706480047FEE7FEE7FEE7FEE711
:1001B000FEE7FEE7FEE7FEE7FEE7FEE7150A0008BA
:1001C000890100082DE9F05F0546002092469B4614
:1001D00088460646814640241BE02846414647465D
:1001E000224600F041F853465A46C01A914110D3B6
:1001F00011461846224600F016F82D1A67EB010842
:100200004F4622460120002100F00DF817EB0009AF
:100210004E41201EA4F10104DFDC484631462A4647
:100220004346BDE8F09F202A04DB203A00FA02F1A1
:10023000002070479140C2F1200320FA03F31943D4
:1002400090407047064C074D06E0E06840F001031F
:1002500094E8070098471034AC42F6D3FFF798FFB4
:10026000A0100008C0100008202A04DB203A21FA60
:1002700002F00021704721FA02F3D040C2F12002BF
:10028000914008431946704700BFFEE706480068E2
:1002900000F0200038B104480830006840F0200029
:1002A00001490831086070470064024010B50948F0
:1002B000006800F4006060B106480830006840F44F
:1002C00000600449083108600348017803A000F089
:1002D00005FD10BD046402400800002025630000F5
:1002E0000A48006800F0006078B1084808300068EB
:1002F00040F000600549083108600448B4300068E7
:1003000020F001000149B4310860704704640240E4
:100310007047000010B50D48006840F001000B491F
:100320000860142000F05AFE0948006900F001003E
:1003300050B100BF0648006900F001000028F9D163
:100340004FF4806000F0DAFA10BD0000143C014068
:100350000000024010B51948006840F00800174935
:10036000086017A000F0BAFC142000F037FE154812
:10037000006900F00800F8B900BF1248006900F0F9
:1003800008000028F9D010480078002814DD0E4835
:1003900000780A380C4908700846007800F06EFBB7
:1003A0000A48C46B0848017809A000F097FC214670
:1003B0000AA000F093FC00BF10BD0000143C0140F7
:1003C0002D2D0A0000100240000000200000014016
:1003D00064757479203D2025640A0000737461748B
:1003E0007573203D2025640A0000000010B51948EF
:1003F000006840F010001749086017A000F06EFC7C
:10040000142000F0EBFD1548006900F01000F8B969
:1004100000BF1248006900F010000028F9D0104811
:100420000078642814DA0E4800780A300C49087005
:100430000846007800F022FB0A48C46B084801789F
:1004400009A000F04BFC21460AA000F047FC00BFC9
:1004500010BD0000143C01402B2B0A00001002408C
:10046000000000200000014064757479203D2025C3
:10047000640A0000737461747573203D2025640A5A
:1004800000000000FE48006840F00100FC490860E0
:10049000FB480838006840F00800F949083908604E
:1004A0000846006840F0100008600846006840F008
:1004B000200008600846006840F040000860F148ED
:1004C000006840F00C00EF4908600846006840F002
:1004D000C00008600846006840F4406008600846B4
:1004E000006840F4404008600846006840F440203E
:1004F00008600846006840F440000860E148203881
:10050000406A40F44021DF4820384162406A40F4AC
:100510004001DC4820384162406A40F04061D948DF
:1005200020384162406A40F04041D648203841625C
:10053000D548006840F00C00D349086008460068C0
:1005400040F0C00008600846006840F44060086061
:100550000846006840F4404008600846006840F4DF
:10056000402008600846006840F440000860C74822
:10057000406A40F44041C5484162406A40F440212D
:10058000C2484162406A40F44001C0484162BD48EF
:1005900020380068BE490843BA4920390860084637
:1005A0000068BC490840B74920390860B548183888
:1005B0000068B9490843B34918390860081D006844
:1005C000B449C9430843AF4914390860AE482038DC
:1005D000006840F6AA210843AB4920390860084664
:1005E000006840F255518843A74920390860A64861
:1005F0001838006840F6FF710843A34918390860AD
:10060000081D006840F2555108439F49143908609D
:100610009E48006840F028609C49086008460068D1
:1006200020F0A860086099480830006840F07C60BD
:10063000964908310860081D006840F0A860091D4F
:10064000086092482030006840F00C008F4920314B
:1006500008600846006840F0C00008608B48406AA7
:1006600040F00C0189484162406A40F0C00187486F
:100670004162406A40F4406184484162406A40F00F
:10068000406182484162406A40F040417F48416297
:100690008248006A40F04040804908620846406A4B
:1006A00040F00C017D484162406A40F0C0017B4847
:1006B0004162406A40F4406178484162406A40F4D7
:1006C000404176484162406A40F4402173484162AB
:1006D000406A40F4400171484162406A40F0406124
:1006E0006E484162406A40F040416C484162674850
:1006F00000686B4908436549086008460068694915
:10070000084062490860614808300068664908434B
:100710005E4908310860081D00686249C943084302
:100720005A490C3108605D480068604908435B49DC
:100730000860084600685E49084058490860084655
:1007400080685C490843554988600846C068584934
:10075000C94308435149C8600846006A40F0C000D8
:1007600008620846006A40F00C00086247482030E2
:10077000006840F440204549203108600846006880
:1007800040F44000086040482038406A40F440612E
:100790003D48203841624148006840F00A003F4926
:1007A00008600846006820F0050008600846806878
:1007B00040F00F0088600846C06840F00500C8603F
:1007C0003248006840F420603049086008460068FC
:1007D00020F4A06008602D480830006840F4706084
:1007E0002A4908310860081D006840F4A060091D0E
:1007F000086025482038006840F40010224920395C
:1008000008600846006820F4801008601E48183808
:10081000006840F440101C4918390860081D006841
:1008200040F48010091D08604FF02040006920F05E
:1008300002004FF0204108610846006920F00C00DA
:1008400008610846006920F0200008610846006938
:1008500040F0100008610846006920F0400008617F
:100860000846006940F4805008610846006920F499
:10087000804008610846406920F00F0048611BE095
:10088000383802402014024020180240000C024078
:10089000AA0A00AAAAFAFFAAFF0F00FF001002404E
:1008A0000A002AA0FAFFEAAF0F003FF00080AAAAD0
:1008B000FFBFAAAA00C0FFFF0846406920F47F409E
:1008C00048610846406940F4C050486108460069E4
:1008D00040F001000861704700BFFEE70249096867
:1008E0000143014A1160704714140240024909682B
:1008F0008143014A116070471414024000B5034659
:1009000005480068184018B91846FFF7E7FF02E0ED
:100910001846FFF7EBFF00BD1414024000BFFEE7CE
:1009200070477047704700000CB5002001900090A0
:100930003448006840F480303249086000BF3148D4
:10094000006800F4003000900198401C019000986D
:1009500018B90198B0F5A04FF1D12A48006800F409
:10096000003010B10120009001E0002000900098BC
:10097000012846D123484030006840F0805021498A
:10098000403108602048006840F440401E4908603B
:100990001C48083000681B49083108600846006898
:1009A00040F4004008600846006840F4A050086029
:1009B0001648091F0860081F006840F08070091F72
:1009C000086000BF0F48006800F000700028F9D0F0
:1009D00040F205700E4908600A480830006820F0AF
:1009E00003000849083108600846006840F002002A
:1009F000086000BF03480830006800F00C000828B9
:100A0000F8D10CBD00380240007000400854400787
:100A1000003C024010B51548006840F470001349CE
:100A200008601348006840F0010011490860002088
:100A30000F49083108600E4800680E4908400C490B
:100A400008600D48091D0860081F006820F4802018
:100A5000091F0860002006490C310860FFF764FF99
:100A60004FF0006001498039086010BD88ED00E05A
:100A700000380240FFFFF6FE103000240149C86331
:100A800070470000000001400848008A00F00100A3
:100A900050B10648008A20F0010004490882084647
:100AA000008820F00100088070470000000001402D
:100AB0000548008A20F001000349088203480068C5
:100AC000401C0249086070470010004004000020EC
:100AD00000B51148008800F0200058B10E48808809
:100AE0000E490F4A127888540D480078401C0C4972
:100AF000087010E00848008800F0100058B106485F
:100B000000880548808806480178044800F0CAF843
:100B100000200349087000BD0010014010000020B3
:100B20000100002010B500EE900AF8EE600A9FED7B
:100B3000571AC1EE201AB0EE610AFCEEC00A10EEA0
:100B4000901A00EE901AF8EE600A30EE601AF3EE9A
:100B5000001AF6EE000A41EE210AFCEEE00A10EE61
:100B6000902A4B4B1B6843F00103494C2360484BD0
:100B700014331B6843F01003454C14342360454B79
:100B80005B6A43F07004434B5C625B6A43F4E0646D
:100B9000404B5C621B6843F400233E4C23602346B9
:100BA0001B6823F48023236023465B6823F40073CF
:100BB000636023469B6843F44023A3602346DB68BD
:100BC00043F48023E3602346DB6823F40023E360DF
:100BD00023461B6843F40013236023461B6823F459
:100BE0008013236023465B6823F48063636023469D
:100BF0009B6843F44013A3602346DB6843F48013EF
:100C0000E3602346DB6823F40013E36042EA011348
:100C1000214C238123469B8943F00C03A381234667
:100C20009B8943F03003A38123469B8923F480539F
:100C3000A38123469B8923F48063A38123461B8AD7
:100C400023F44053238223469B8943F40053A3811A
:100C50000F4B14331B6843F480430D4C1434236052
:100C600023461B6843F4004323600C4B1B6823F4AA
:100C7000E0630A4C236023461B6843F440732360FF
:100C8000074B1B78064C237010BD0000A037A04A0C
:100C90003038024000000240001001400CED00E03E
:100CA00025E400E010B503460C46002204E0985C01
:100CB00000F006F8501CC2B2A242F8DB10BD0000E2
:100CC00000BF0449098801F080010029F9D00149D9
:100CD000888070470010014000BFFEE70FB4054B4D
:100CE00010B503A9044A029800F018F810BC5DF88A
:100CF00014FB0000351000080C00002002E008C8BA
:100D0000121F08C1002AFAD170477047002001E085
:100D100001C1121F002AFBD1704700002DE9FF4FCF
:100D20008DB09B460F460446002606E025280BD0D2
:100D30005A460F999047641C761C20780028F5D1FC
:100D400011B03046BDE8F08F0025A8460122984931
:100D500000E0054314F8013F203B02FA03F008428B
:100D6000F7D120782E2817D114F8010F45F004058B
:100D70002A280ED06FF02F022078A0F13001092927
:100D80000AD808EB880102EB410100EB0108641C62
:100D9000F2E757F8048B641C20786C280DD004DC33
:100DA0004C2812D06A2811D104E074280DD07A287A
:100DB0000CD10AE045F4001507E0617845F4801590
:100DC000814202D1641C05F58015641C20786928D5
:100DD00044D008DC0028B3D0582867D063280FD04F
:100DE000642808D13AE0702865D0732812D075289D
:100DF0005AD078285AD05A460F999047761CD5E099
:100E000017F8040B8DF8000000208DF80100E9466A
:100E1000012003E057F8049B4FF0FF3069074FF0C3
:100E2000000501D40AE06D1C45450DDA8542FADB68
:100E300019F805100029F6D106E06D1C8542FCDB8F
:100E400019F805100029F8D12E4404E019F8010B17
:100E50005A460F9990476D1EF8D2A7E00A2000214C
:100E6000CDE90801C5F3025002280CD001CFC1170B
:100E7000021E71F100020CDA0023D0EB030063EBD9
:100E800001012D2208E0FF1D27F00707F7E8020106
:100E9000EEE72A0504D52B228DF8282001223CE01C
:100EA000EA073AD02022F7E70A2000E010200021CC
:100EB000CDE9080107E01020002145F00405CDE947
:100EC00008014FF00808C5F30250022810D001CFE6
:100ED00000214FF0000A2A0720D52278702A0DD071
:100EE000DDE908C38CF0100C5CEA030C0CD015E0B3
:100EF000FF1D27F00707F7E80201EAE740228DF817
:100F000028204FF0010A0CE050EA010306D03023FC
:100F10008DF828308DF82920022292462278582A0E
:100F200004D024A20DF120090B9209E026A2F9E7D2
:100F3000DDE90823FFF746F90B9B9B5C09F8013DAF
:100F400050EA0102F4D1ADEB0900203008906807A7
:100F500001D44FF001080899884503DD0898A8EBF3
:100F6000000000E000208046002506E00AA85A465E
:100F7000405D0F9990476D1C761C5545F6DB04E0EB
:100F800030205A460F999047761CB8F10001A8F11D
:100F90000108F5DC05E019F8010B5A460F99904756
:100FA000761C0899481E08900029F4DC641CC4E6ED
:100FB000092801003031323334353637383961622F
:100FC00063646566000000003031323334353637F3
:100FD00038394142434445460000000000B503460D
:100FE00003E04FF47A7000F005F8181EA3F1010336
:100FF000F7D100BDA82141434FF0E02251611146D5
:10100000096941F0050111611146096921F00201E8
:10101000116100BF4FF0E021096901F4803100291E
:10102000F8D04FF0E021096921F001014FF0E022F2
:101030001161704700B502460B46D0B2FFF740FE83
:10104000104600BD70B54FF4E130FFF76BFDFFF7C0
:1010500019FA4FF0D0447B202080A51C4FF4E47097
:1010600028802188224605A0FFF738FE29882A46D5
:1010700006A0FFF733FE002070BD00007465737496
:10108000203D2025642C204025700A00746573746F
:1010900031203D2025642C204025700A00000000EE
:1010A000C01000080000002010000000FC0C000828
:1010B000D010000810000020680400000C0D00088B
:1010C00032000000000000000000000000000000EE
:040000050800018965
:00000001FF
