:020000040800F2
:1000000068040020A10100089D0600087103000893
:10001000990600080D0200084909000800000000C8
:10002000000000000000000000000000A106000821
:1000300011020008000000009F0600089107000858
:10004000BB010008BB010008BB010008BB010008A0
:10005000BB010008BB01000831030008BB01000818
:10006000BB010008BB010008BB010008BB01000880
:10007000BB010008BB010008BB010008BB01000870
:10008000BB010008BB010008BB010008BB01000860
:10009000BB010008BB010008BB010008BB01000850
:1000A000BB010008BB010008BB010008BB01000840
:1000B000BB010008BB010008BB010008BB01000830
:1000C000BB010008BB010008BB010008BB01000820
:1000D000BB010008BB010008BB010008BB01000810
:1000E000BB010008BB010008BB010008BB01000800
:1000F000BB010008BB010008BB010008BB010008F0
:10010000BB010008BB010008BB010008BB010008DF
:10011000BB010008BB010008BB010008BB010008CF
:10012000BB010008BB010008BB010008BB010008BF
:10013000BB010008BB010008BB010008BB010008AF
:10014000BB010008BB010008BB010008BB0100089F
:10015000BB010008BB010008BB010008BB0100088F
:10016000BB010008BB010008BB010008BB0100087F
:10017000BB010008BB010008BB010008BB0100086F
:10018000BB010008BB010008DFF810D000F02CF81C
:1001900000480047C90A0008AFF300806804002047
:1001A0000648804706480047FEE7FEE7FEE7FEE711
:1001B000FEE7FEE7FEE7FEE7FEE7FEE7950700083D
:1001C00089010008D2B201E000F8012B491EFBD2E0
:1001D00070470022F6E710B513460A460446194652
:1001E000FFF7F0FF204610BD064C074D06E0E06823
:1001F00040F0010394E8070098471034AC42F6D36E
:10020000FFF7C6FFE00B0008000C000800BFFEE788
:10021000704710B500F0E4F810BD70B5044600F06A
:1002200073F9A02000F0A8F900F0E8F9204600F0EA
:10023000A3F900F0E3F900F067F9A12000F09CF9C0
:1002400000F0DCF900F026F9054600F0FFF800F0B8
:1002500077F9284670BD2DE9F04107460E46154650
:10026000002400F051F9A02000F086F900F0C6F952
:10027000384600F081F900F0C1F900F045F9A120FD
:1002800000F07AF900F0BAF900BF09E000F002F9D5
:100290003055681EA04201DD00F06CF8601CC4B24D
:1002A000AC42F3DB00F0D2F800F04AF9BDE8F0818F
:1002B00070B505460C4600F027F9A02000F05CF967
:1002C00000F09CF906465EB9284600F055F900F0AA
:1002D00095F9204600F050F900F090F900F030F95F
:1002E000052000F0BDFB70BD2DE9F04107460D462D
:1002F0001646002400F008F9A02000F03DF900F0B7
:100300007DF9384600F038F900F078F900BF06E0D2
:10031000285D00F031F900F071F9601CC4B2B442FC
:10032000F6DB00F00DF9052000F09AFBBDE8F08146
:1003300010B50D48006840F001000B49086014201A
:1003400000F08EFB0948006900F0010050B100BFC9
:100350000648006900F001000028F9D14FF48060E0
:1003600000F08AF910BD0000143C0140000002407A
:1003700000BFFEE710B51948006820F480701749E7
:1003800008600846006840F4007008600A2000F029
:1003900073FB1248006820F40070104908600A20BE
:1003A00000F06AFB0D48006840F480700B4908605B
:1003B0000A2000F061FB0948006820F480700749BA
:1003C00008600A2000F058FB0448006840F4007000
:1003D000024908600A2000F04FFB10BD14040240DF
:1003E0001848006840F00200164908601648006886
:1003F00040F4A020144908600846006820F420203A
:100400000860081D006840F44070091D0860081D60
:10041000006840F47020091D0860081D006840F461
:10042000A020091D08600846006820F4202008600C
:1004300005481430006820F4407003491431086006
:1004400070470000303802400004024010B51048E8
:10045000006820F480700E4908600846006840F487
:10046000007008600A2000F007FB0948006840F4AB
:100470008070074908600A2000F0FEFA044800680E
:1004800020F48070024908600A2000F0F5FA10BDDF
:100490001404024070B50025002400BF2EE0194866
:1004A000006820F48070174908600A2000F0E4FA20
:1004B0001448006840F48070124908600A2000F077
:1004C000DBFA1048001F006800F4007030B1C4F17E
:1004D0000701012088402843C5B204E0C4F10701A8
:1004E0000120884085430748006820F48070054952
:1004F00008600A2000F0C0FA601CC4B2082CCEDBF1
:10050000284670BD1404024010B50C48006840F441
:1005100080700A4908600846006840F4007008606E
:100520000A2000F0A9FA0548006820F40070034989
:1005300008600A2000F0A0FA10BD00001404024078
:1005400010B50C48006840F480700A4908600846FD
:10055000006820F4007008600A2000F08DFA054859
:10056000006840F40070034908600A2000F084FA33
:1005700010BD00001404024070B50546002400BF01
:1005800036E005FA04F000F080061B48006820F40D
:100590008070194908600846006820F400700860FF
:1005A0000A2000F069FA36B11348006840F4007080
:1005B0001149086005E01048006820F400700E49F9
:1005C00008600A2000F058FA0B48006840F4807078
:1005D000094908600A2000F04FFA0748006820F433
:1005E0008070054908600A2000F046FA601CC4B219
:1005F000082CC6DB70BD00001404024010B515487D
:10060000006820F48070134908600846006840F4D0
:10061000007008600A2000F02FFA0E48006840F4CD
:1006200080700C4908600A2000F026FA0948001F73
:10063000006800F400740748006820F480700549E1
:1006400008600A2000F018FA0CB9002010BD012043
:10065000FCE7000014040240024909680143014A12
:100660001160704714140240024909688143014A2D
:10067000116070471414024000B503460548006835
:10068000184018B91846FFF7E7FF02E01846FFF7D1
:10069000EBFF00BD1414024000BFFEE77047704737
:1006A000704700000CB500200190009034480068AD
:1006B00040F480303249086000BF3148006800F4DF
:1006C000003000900198401C0190009818B90198E2
:1006D000B0F5A04FF1D12A48006800F4003010B105
:1006E0000120009001E0002000900098012846D1F0
:1006F00023484030006840F0805021494031086074
:100700002048006840F440401E4908601C480830FA
:1007100000681B49083108600846006840F4004042
:1007200008600846006840F4A05008601648091F99
:100730000860081F006840F08070091F086000BF53
:100740000F48006800F000700028F9D040F20570F2
:100750000E4908600A480830006820F00300084984
:10076000083108600846006840F00200086000BFD9
:1007700003480830006800F00C000828F8D10CBDD0
:10078000003802400070004008544007003C02401E
:100790007047000010B51548006840F47000134918
:1007A00008601348006840F001001149086000200B
:1007B0000F49083108600E4800680E4908400C498E
:1007C00008600D48091D0860081F006820F480209B
:1007D000091F0860002006490C310860FFF762FF1E
:1007E0004FF0006001498039086010BD88ED00E0DD
:1007F00000380240FFFFF6FE1030002410B500EE76
:10080000900AF8EE600A9FED461AC1EE201AB0EE8B
:10081000610AFCEEC00A10EE901A00EE901AF8EE93
:10082000600A30EE601AF3EE001AF6EE000A41EEAE
:10083000210AFCEEE00A10EE902A3A4B1B6843F0C6
:100840000103384C2360374B14331B6843F010030B
:10085000344C14342360344B5B6A43F07004324BE5
:100860005C625B6A43F4E0642F4B5C621B6843F498
:1008700000232D4C236023461B6823F48023236030
:1008800023465B6823F40073636023469B6843F44C
:100890004023A3602346DB6843F48023E3602346C0
:1008A000DB6823F40023E36023461B6843F4001352
:1008B000236023461B6823F48013236023465B6870
:1008C00023F48063636023469B6843F44013A36072
:1008D0002346DB6843F48013E3602346DB6823F49C
:1008E0000013E36042EA0113104C238123469B89E5
:1008F00043F00C03A38123469B8923F48053A381F7
:1009000023469B8923F48063A38123461B8A23F417
:100910004053238223469B8943F40053A38110BD97
:10092000A037A04A303802400000024000100140C9
:1009300000BF0449098801F080010029F9D001496C
:10094000888070470010014000BFFEE70FB4054BE0
:1009500010B503A9044A029800F017F810BC5DF81E
:1009600014FB0000B90A00080000002002E008C8DB
:10097000121F08C1002AFAD170477047002001E019
:1009800001C1121F002AFBD170472DE9F84F99468B
:10099000924688460546002706E025280AD051469B
:1009A0004A4690476D1C7F1C28780028F5D13846B0
:1009B000BDE8F88F002315F8011F18462E2915D120
:1009C00015F8011F04232A290DD06FF02F02297872
:1009D000A1F13004092C09D800EB800002EB4000A3
:1009E00008446D1CF3E758F8040B6D1C2A78002AA4
:1009F000DDD0632A07D0732A0FD0104651464A46ED
:100A000090477F1C2AE018F8042B8DF80020002165
:100A10008DF801106E46012103E058F8046B4FF089
:100A2000FF315A074FF0000401D409E0641C8442EE
:100A30000BDA8C42FADB325D002AF7D105E0641C48
:100A40008C42FCDB305D0028F9D1274404E016F825
:100A5000010B51464A469047641EF8D26D1CA3E72D
:100A600000B5034603E04FF47A7000F005F8181E55
:100A7000A3F10103F7D100BDA82141434FF0E022CB
:100A800051611146096941F0050111611146096979
:100A900021F00201116100BF4FF0E021096901F46A
:100AA00080310029F8D04FF0E021096921F00101DF
:100AB0004FF0E0221161704700B502460B46D0B2FC
:100AC000FFF736FF104600BD2DE9F0414FF4E1304D
:100AD000FFF794FEFFF79DFB27A0FFF737FF61218B
:100AE0000020FFF7E5FB62210120FFF7E1FB632116
:100AF0000220FFF7DDFB0020FFF78FFB04460120FB
:100B0000FFF78BFB05460220FFF787FB06463346BF
:100B10002A4621461DA0FFF719FF062221A1002029
:100B2000FFF7E2FB062221490020FFF794FB1F4953
:100B30001FA0FFF70BFF64211C48FFF74AFB15229B
:100B40001EA10020FFF7D0FB00211020FFF7B0FB13
:100B5000152216490020FFF77EFB1020FFF75DFBF2
:100B60000746124912A0FFF7F1FE394619A0FFF718
:100B7000EDFE0020BDE8F081E5BC80E5A78BE6B581
:100B80008BE8AF954932432E2E2E0A0061203D207E
:100B90002563092062203D202563092063203D2034
:100BA00025630A003132333435360000040000205A
:100BB000737472203D2025730A00000031323334F3
:100BC0003536373839306162636465666768696AEB
:100BD0006B00000074657374203D2025630A0000DB
:100BE000000C000800000020040000006C09000850
:100BF000040C000804000020640400007C090008C4
:040C000000000000F0
:040000050800018965
:00000001FF
