:020000040800F2
:1000000078040020A1010008A11000082D0C0008B0
:100010009D10000889020008591400080000000023
:10002000000000000000000000000000A510000813
:100030003106000800000000A3100008B901000804
:10004000BB010008BB010008BB010008BB010008A0
:10005000BB010008BB01000835060008BB01000811
:10006000BB010008750600080D070008BB01000869
:10007000BB010008BB010008BB010008BB01000870
:10008000BB010008BB010008BB010008BB01000860
:10009000BB010008BB010008BB010008BB01000850
:1000A000BB01000809120008BB010008BB010008E1
:1000B000BB010008BB010008BB010008BB01000830
:1000C000BB010008BB010008BB010008BB01000820
:1000D000BB01000851120008BB010008BB01000869
:1000E000BB010008BB010008BB010008BB01000800
:1000F000BB010008BB010008BB010008BB010008F0
:10010000BB010008BB010008BB010008BB010008DF
:10011000BB010008BB01000831120008BB01000848
:10012000AD050008BB010008BB010008BB010008C9
:10013000BB010008BB010008BB010008BB010008AF
:10014000BB010008BB010008BB010008BB0100089F
:10015000CD050008BB01000801060008BB0100082E
:10016000BB010008BB010008BB010008BB0100087F
:10017000BB010008BB010008BB010008BB0100086F
:10018000BB010008BB010008DFF810D000F06AF8DE
:1001900000480047C5170008AFF30080780400202E
:1001A0000648804706480047FEE7FEE7FEE7FEE711
:1001B000FEE7FEE7FEE7FEE7FEE7FEE79511000833
:1001C000890100082DE9F05F0546002092469B4614
:1001D00088460646814640241BE02846414647465D
:1001E000224600F02FF853465A46C01A914110D3C8
:1001F00011461846224600F016F82D1A67EB010842
:100200004F4622460120002100F00DF817EB0009AF
:100210004E41201EA4F10104DFDC484631462A4647
:100220004346BDE8F09F202A04DB203A00FA02F1A1
:10023000002070479140C2F1200320FA03F31943D4
:1002400090407047202A04DB203A21FA02F0002176
:10025000704721FA02F3D040C2F1200291400843D6
:1002600019467047064C074D06E0E06840F0010370
:1002700094E8070098471034AC42F6D3FFF788FFA4
:10028000784800089848000800BFFEE71F4800684B
:1002900040F001001D490860081D006820F00100C1
:1002A000091D086019480C30006840F0010017492A
:1002B0000C31086015481430006820F00100134923
:1002C000143108604FF00070104940310860084652
:1002D000006820F0020008600846006820F0040072
:1002E00008604FF0007109484430016007481C3035
:1002F000006840F0010005491C31086003480068AF
:1003000020F00100014908607047000000660040CD
:100310004E48006840F000704C4908604B48103867
:10032000006840F001004949103908604848406AB7
:1003300040F4104146484162406A40F4102144486C
:100340004162006840F0207041490860084600683A
:1003500020F0A07008600846406820F4C050486053
:100360000846806840F0707088600846C06820F0D9
:100370007070C8603748006840F001003549086077
:1003800000BF3448001D006800F001000028F8D0CC
:100390003048006820F002002E49086000BF2D4858
:1003A000001D006800F002000028F8D1294800680C
:1003B00040F04000274908600846006840F02000EF
:1003C00008600846006820F00400086008460068DD
:1003D00020F0080008600846006820F0100008605F
:1003E0001C481C3000686FF309001A491C31086072
:1003F0000846006840F0290008600846006820F4BC
:10040000702008600846006840F4802008600846B4
:10041000006820F4E00008600846006840F44010DE
:1004200008600846006840F04040086009480068DD
:1004300020F001000749086000BF0648001D006861
:1004400000F001000028F8D1704700004038024059
:10045000000002400064004030B50A461D490968AA
:1004600001F003011170002330E01B49096840F2DC
:10047000FF7404EA515101801749091D096801F010
:100480000F018170002115E0042908DA124C0834AC
:100490002468CD00EC40E5B2C41C655408E00E4C65
:1004A0000C3424680D1FED00EC40E5B2C41C65540B
:1004B0004C1CE1B284788C42E6DC0649096841F0C4
:1004C0002001044C21600C30591CCBB211789942A8
:1004D000CBDC30BD0C640040B065004030B5034655
:1004E00000BF3048006800F080600028F9D02E4836
:1004F000006820F002002C4C20602046006820F0AC
:100500000400206020460068C0F3140020602046EC
:10051000006840EA43502060201D006820F00F046E
:100520002148001D0460006808431F4C241D206002
:100530002046006820F480741B48001D04600024DD
:10054000001D0460001D046000201BE004280BDA7D
:1005500012F8014BC500AC40134D08352D682C43F3
:10056000114D08352C600BE012F8014B051FED0012
:10057000AC400D4D0C352D682C430B4D0C352C60CB
:10058000441CE0B28842E1DB0748006840F001000B
:10059000054C206000BF0348006800F002000028FE
:1005A000F9D030BD0864004080650040064800680E
:1005B00000F0200038B104480830006840F0200006
:1005C00001490831086070470064024010B50948CD
:1005D000006800F4006060B106480830006840F42C
:1005E00000600449083108600348017803A000F066
:1005F00035FF10BD046402400800002025630000A0
:100600000A48006800F0006078B1084808300068C7
:1006100040F000600549083108600448B4300068C3
:1006200020F001000149B4310860704704640240C1
:100630007047000010B50D48006840F001000B49FC
:100640000860142001F08AF80948006900F00100F0
:1006500050B100BF0648006900F001000028F9D140
:100660004FF4806000F00AFD10BD0000143C014012
:100670000000024010B51948006840F00800174912
:10068000086017A000F0EAFE142001F067F8154892
:10069000006900F00800F8B900BF1248006900F0D6
:1006A00008000028F9D010480078002814DD0E4812
:1006B00000780A380C4908700846007800F09EFD62
:1006C0000A48C46B0848017809A000F0C7FE21461B
:1006D0000AA000F0C3FE00BF10BD0000143C0140A2
:1006E0002D2D0A00001002400000002000000140F3
:1006F00064757479203D2025640A00007374617468
:100700007573203D2025640A0000000010B51948CB
:10071000006840F010001749086017A000F09EFE26
:10072000142001F01BF81548006900F01000F8B91A
:1007300000BF1248006900F010000028F9D01048EE
:100740000078642814DA0E4800780A300C490870E2
:100750000846007800F052FD0A48C46B084801784A
:1007600009A000F07BFE21460AA000F077FE00BF42
:1007700010BD0000143C01402B2B0A000010024069
:10078000000000200000014064757479203D2025A0
:10079000640A0000737461747573203D2025640A37
:1007A00000000000FE48006840F00100FC490860BD
:1007B000FB480C30006840F48040F9490C31086077
:1007C0000846006840F400400860F54808380068B2
:1007D00040F00200F249083908600846006840F01D
:1007E000040008600846006840F0080008600846F9
:1007F000006840F0100008600846006840F02000E3
:1008000008600846006840F040000860E548406A1B
:1008100040F44021E3484162006840F00070E14943
:1008200008600846006820F080700860DD480830E5
:10083000006840F04070DB4908310860081D00681E
:1008400040F08070091D0860D748006840F00C0037
:10085000D54908600846006840F0C0000860D248EA
:100860002038406A40F00C01CF4820384162406A8D
:1008700040F0C001CC4820384162406A40F44061F9
:10088000C94820384162406A40F04061C64820387B
:100890004162406A40F04041C34820384162C34849
:1008A000006A40F04040C14908620846406A40F092
:1008B0000C01BE484162406A40F0C001BB48416241
:1008C000406A40F44061B9484162406A40F44041A6
:1008D000B6484162406A40F44021B4484162406AEF
:1008E00040F44001B1484162406A40F04061AF4885
:1008F0004162406A40F04041AC484162AA48203819
:100900000068AB490843A8492039086008460068D8
:10091000A8490840A44920390860A348183800684D
:10092000A5490843A04918390860081D0068A14975
:10093000C94308439C49143908609C4800689F4992
:1009400008439A490860084600689D49084097494D
:100950000860084680689B490843944988600846B7
:10096000C0689749C94308439049C8608E480068E9
:1009700040F440208C4908600846006840F440007C
:1009800008609148406A40F440218F48416286489F
:100990002038006840F42060834920390860084608
:1009A000006820F4A06008607F481838006840F4B0
:1009B00070607D4918390860081D006840F4A06027
:1009C000091D08608048006840F000707E4908609A
:1009D0000846006820F0807008607B480830006896
:1009E00040F04070784908310860081D006840F008
:1009F0008070091D08607548006840F080407349A8
:100A000008600846006820F0004008606F48083021
:100A1000006840F040406D4908310860081D0068DA
:100A200020F04040091D086068481430006840F418
:100A300000406649143108606448006820F03000C6
:100A40006249086061480830006840F030005F4942
:100A500008310860081D006820F03000091D08609A
:100A60005048006840F480004E490860084600681D
:100A700020F4000008604B480830006840F4400053
:100A8000484908310860081D006820F44000091D2D
:100A900008604E48006820F00C004C4908604B4844
:100AA0000C30006840F0040048490C3108600846EA
:100AB000006820F0080008604548006840F0100019
:100AC000434908604348006840F00200414908601B
:100AD00040480C38006840F002003E490C3908607C
:100AE0003D48006820F4E0603B4908600846006823
:100AF00040F4407008603948007840F08001374881
:100B000001708020364908603648006840F08060F7
:100B1000344908600846006820F0006008603148E9
:100B20000830006840F040602E4908310860081D18
:100B3000006820F04060091D08602448006840F00B
:100B40000100224908600846006820F002000860A1
:100B50001E480830006840F003001C490831086056
:100B6000081D006820F00300091D08604FF02040B8
:100B7000806920F002004FF02041886108468069BA
:100B800020F00C0088610846806920F02000886110
:100B90000846806940F0100088610846806923E0BB
:100BA0003838024000140240200C0240001002407D
:100BB0000A002AA0FAFFEAAF0F003FF00080AAAABD
:100BC000FFBFAAAA00C0FFFF0018024000040240B5
:100BD000083801400C3C01400CED00E007E400E067
:100BE00000E100E00008024020F040008861084673
:100BF000806940F4805088610846806920F4804014
:100C000088610846C06920F00F00C8610846C069C5
:100C100020F47F40C8610846C06940F42740C8619D
:100C20000846806940F001008861704700BFFEE718
:100C300010B5FFF7B7FD00F001F810BD10B5CF20DB
:100C400000F002FA002000F003FAC12000F000FAE0
:100C5000302000F0FDF9ED2000F0F6F9642000F0FE
:100C6000F7F9032000F0F4F9122000F0F1F98120E7
:100C700000F0EEF9E82000F0E7F9852000F0E8F94F
:100C8000102000F0E5F97A2000F0E2F9CB2000F026
:100C9000DBF9392000F0DCF92C2000F0D9F9002034
:100CA00000F0D6F9342000F0D3F9022000F0D0F99A
:100CB000F72000F0C9F9202000F0CAF9EA2000F07E
:100CC000C3F9002000F0C4F9002000F0C1F9C020F1
:100CD00000F0BAF91B2000F0BBF9C12000F0B4F914
:100CE000012000F0B5F9C52000F0AEF9302000F089
:100CF000AFF9302000F0ACF9C72000F0A5F9B7201B
:100D000000F0A6F9362000F09FF9082000F0A0F9C5
:100D10003A2000F099F9552000F09AF9B12000F03E
:100D200093F9002000F094F91A2000F091F9B62010
:100D300000F08AF90A2000F08BF9A22000F088F96F
:100D4000F22000F081F9002000F082F9262000F066
:100D50007BF9012000F07CF9E02000F075F90F200C
:100D600000F076F92A2000F073F9282000F070F9DD
:100D7000082000F06DF90E2000F06AF9082000F05C
:100D800067F9542000F064F9A92000F061F94320CC
:100D900000F05EF90A2000F05BF90F2000F058F92E
:100DA000002000F055F9002000F052F9002000F07A
:100DB0004FF9002000F04CF9E12000F045F9002047
:100DC00000F046F9152000F043F9172000F040F933
:100DD000072000F03DF9112000F03AF9062000F05C
:100DE00037F92B2000F034F9562000F031F93C207F
:100DF00000F02EF9052000F02BF9102000F028F962
:100E00000F2000F025F93F2000F022F93F2000F0EC
:100E10001FF90F2000F01CF92B2000F015F900201D
:100E200000F016F9002000F013F9012000F010F98D
:100E30003F2000F00DF92A2000F006F9002000F014
:100E400007F9002000F004F9002000F001F9EF207C
:100E500000F0FEF8112000F0F7F8782000F07EFC9A
:100E6000292000F0F1F810BD30B504460D462A20C7
:100E700000F0EAF8201200F0EBF8E0B200F0E8F839
:100E8000A118491EC1F30F2000F0E2F8A118491E75
:100E9000C8B200F0DDF82B2000F0D6F8281200F0E0
:100EA000D7F8E8B200F0D4F8E918491EC1F30F20D2
:100EB00000F0CEF8E918491EC8B200F0C9F830BDFC
:100EC0002DE9FF4F81B016461F46A7F12000C4B29E
:100ED0004FF00008C1460025002000900C2E06D0DF
:100EE000102E10D0182E18D0202E2CD121E04FF02B
:100EF0000C084FF00609022504EB44002F4901EBD2
:100F00008000009022E04FF010084FF00809022501
:100F10002B4800EB0410009018E04FF018084FF039
:100F20000C09032504EBC400264901EB8000009066
:100F30000CE04FF020084FF010090425224800EB88
:100F40008410009002E005B0BDE8F08F00BF43467A
:100F50004A46DDE90101FFF787FF2C2000F074F815
:100F6000002226E0002320E04FF0000A002008E0E5
:100F700003FB050C009911F80C1041EA0A2A411CE8
:100F8000C8B2A842F4DB0120C0EBC500811A0120E1
:100F900000FA01FB0AEA0B0109B10E9900E00F9972
:100FA000084600F055F8581CC3B24B45DCDB501C1A
:100FB000C2B24245D6DB00BFC5E70000F818000802
:100FC0006C1D00085C230008B83000082DE9FC43C4
:100FD00006460F4614461D46DDE909892FE02878AC
:100FE0000A2804D1381987B200266D1C27E004EBCB
:100FF000D47106EB6101F0290FDCCDE9008915F809
:10100000013B224639463046FFF75AFF204604EBA3
:10101000D07106EB61018EB211E0381987B200265B
:10102000CDE9008915F8013B224639463046FFF7E5
:1010300047FF204604EBD07106EB61018EB22878A1
:101040000028CCD1BDE8FC834FF0D8410880704720
:1010500001490880704700008000006C024909685F
:101060000143014A116070471414024002490968A3
:101070008143014A116070471414024000B50346D1
:1010800005480068184018B91846FFF7E7FF02E066
:101090001846FFF7EBFF00BD1414024000BFFEE747
:1010A00070477047704700000CB500200190009019
:1010B0003448006840F480303249086000BF31484D
:1010C000006800F4003000900198401C01900098E6
:1010D00018B90198B0F5A04FF1D12A48006800F482
:1010E000003010B10120009001E000200090009835
:1010F000012846D123484030006840F08050214903
:10110000403108602048006840F440401E490860B3
:101110001C48083000681B49083108600846006810
:1011200040F4004008600846006840F4A0500860A1
:101130001648091F0860081F006840F08070091FEA
:10114000086000BF0F48006800F000700028F9D068
:1011500040F205700E4908600A480830006820F027
:1011600003000849083108600846006840F00200A2
:10117000086000BF03480830006800F00C00082831
:10118000F8D10CBD00380240007000400854400700
:10119000003C024010B51548006840F47000134947
:1011A00008601348006840F0010011490860002001
:1011B0000F49083108600E4800680E4908400C4984
:1011C00008600D48091D0860081F006820F4802091
:1011D000091F0860002006490C310860FFF764FF12
:1011E0004FF0006001498039086010BD88ED00E0D3
:1011F00000380240FFFFF6FE103000240149C863AA
:1012000070470000000001400848008A00F001001B
:1012100050B10648008A20F00100044908820846BF
:10122000008820F0010008807047000000000140A5
:101230000548008A20F0010003490882034800683D
:10124000401C024908607047001000400400002064
:1012500000B51148008800F0200058B10E48808881
:101260000E490F4A127888540D480078401C0C49EA
:10127000087010E00848008800F0100058B10648D7
:1012800000880548808806480178044800F0CAF8BC
:1012900000200349087000BD00100140100000202C
:1012A0000100002010B500EE900AF8EE600A9FEDF4
:1012B000571AC1EE201AB0EE610AFCEEC00A10EE19
:1012C000901A00EE901AF8EE600A30EE601AF3EE13
:1012D000001AF6EE000A41EE210AFCEEE00A10EEDA
:1012E000902A4B4B1B6843F00103494C2360484B49
:1012F00014331B6843F01003454C14342360454BF2
:101300005B6A43F07004434B5C625B6A43F4E064E5
:10131000404B5C621B6843F400233E4C2360234631
:101320001B6823F48023236023465B6823F4007347
:10133000636023469B6843F44023A3602346DB6835
:1013400043F48023E3602346DB6823F40023E36057
:1013500023461B6843F40013236023461B6823F4D1
:101360008013236023465B6823F480636360234615
:101370009B6843F44013A3602346DB6843F4801367
:10138000E3602346DB6823F40013E36042EA0113C1
:10139000214C238123469B8943F00C03A3812346E0
:1013A0009B8943F03003A38123469B8923F4805318
:1013B000A38123469B8923F48063A38123461B8A50
:1013C00023F44053238223469B8943F40053A38193
:1013D0000F4B14331B6843F480430D4C14342360CB
:1013E00023461B6843F4004323600C4B1B6823F423
:1013F000E0630A4C236023461B6843F44073236078
:10140000074B1B78064C237010BD0000A037A04A84
:101410003038024000000240001001400CED00E0B6
:1014200025E400E010B503460C46002204E0985C79
:1014300000F006F8501CC2B2A242F8DB10BD00005A
:1014400000BF0449098801F080010029F9D0014951
:10145000888070470010014000BFFEE70FB4054BC5
:1014600010B503A9044A029800F018F810BC5DF802
:1014700014FB0000B51700080C00002002E008C8AB
:10148000121F08C1002AFAD170477047002001E0FE
:1014900001C1121F002AFBD1704700002DE9FF4F48
:1014A0008DB09B460F460446002606E025280BD04B
:1014B0005A460F999047641C761C20780028F5D175
:1014C00011B03046BDE8F08F0025A84601229849AA
:1014D00000E0054314F8013F203B02FA03F0084204
:1014E000F7D120782E2817D114F8010F45F0040504
:1014F0002A280ED06FF02F022078A0F130010929A0
:101500000AD808EB880102EB410100EB0108641CDA
:10151000F2E757F8048B641C20786C280DD004DCAB
:101520004C2812D06A2811D104E074280DD07A28F2
:101530000CD10AE045F4001507E0617845F4801508
:10154000814202D1641C05F58015641C207869284D
:1015500044D008DC0028B3D0582867D063280FD0C7
:10156000642808D13AE0702865D0732812D0752815
:101570005AD078285AD05A460F999047761CD5E011
:1015800017F8040B8DF8000000208DF80100E946E3
:10159000012003E057F8049B4FF0FF3069074FF03C
:1015A000000501D40AE06D1C45450DDA8542FADBE1
:1015B00019F805100029F6D106E06D1C8542FCDB08
:1015C00019F805100029F8D12E4404E019F8010B90
:1015D0005A460F9990476D1EF8D2A7E00A200021C5
:1015E000CDE90801C5F3025002280CD001CFC11784
:1015F000021E71F100020CDA0023D0EB030063EB52
:1016000001012D2208E0FF1D27F00707F7E802017E
:10161000EEE72A0504D52B228DF8282001223CE094
:10162000EA073AD02022F7E70A2000E01020002144
:10163000CDE9080107E01020002145F00405CDE9BF
:1016400008014FF00808C5F30250022810D001CF5E
:1016500000214FF0000A2A0720D52278702A0DD0E9
:10166000DDE908C38CF0100C5CEA030C0CD015E02B
:10167000FF1D27F00707F7E80201EAE740228DF88F
:1016800028204FF0010A0CE050EA010306D0302375
:101690008DF828308DF82920022292462278582A87
:1016A00004D024A20DF120090B9209E026A2F9E74B
:1016B000DDE90823FEF786FD0B9B9B5C09F8013DE5
:1016C00050EA0102F4D1ADEB090020300890680720
:1016D00001D44FF001080899884503DD0898A8EB6C
:1016E000000000E000208046002506E00AA85A46D7
:1016F000405D0F9990476D1C761C5545F6DB04E064
:1017000030205A460F999047761CB8F10001A8F195
:101710000108F5DC05E019F8010B5A460F999047CE
:10172000761C0899481E08900029F4DC641CC4E665
:1017300009280100303132333435363738396162A7
:10174000636465660000000030313233343536376B
:1017500038394142434445460000000000B5034685
:1017600003E04FF47A7000F005F8181EA3F10103AE
:10177000F7D100BDA82141434FF0E022516111464D
:10178000096941F0050111611146096921F0020161
:10179000116100BF4FF0E021096901F48031002997
:1017A000F8D04FF0E021096921F001014FF0E0226B
:1017B0001161704700B502460B46D0B2FFF740FEFC
:1017C000104600BD30B58DB04FF4E130FFF76AFD33
:1017D000FEF79EFDFEF75AFDFFF72AFA30A205211B
:1017E0001020FEF77BFE30A206211120FEF776FEC8
:1017F0002FA207212220FEF771FE0020039003A9EB
:1018000004A8FEF729FE9DF80C102BA0FFF726FE7A
:1018100000243DE021462DA0FFF720FE04EB44000C
:1018200004AA32F820102DA0FFF718FE2CA0FFF715
:1018300015FE21462BA0FFF711FE00250BE004EB5F
:10184000440004AA02EB8000C01C415D29A0FFF700
:1018500005FE681CC5B204EB440004A901EB80003E
:101860008078A842EBDC1EA0FFF7F8FD4FF6FF7072
:101870000021CDE9001004EB440004AA02EB800033
:10188000C31C610120220020FFF7A0FB601CC4B232
:101890009DF80C008442BDDB00200DB030BD00007F
:1018A00031323334350000006162636465660000E4
:1018B000776F7368696E69004D6573736167652042
:1018C000636F756E743A2025640D0A004D6573735D
:1018D00061676549445B25645D3A200025237800F3
:1018E0000D0A00004D6573736167655B25645D3AA1
:1018F0002000000025630000000000000000000040
:1019000000000000000000003F4000000000000058
:1019100000003000400030004000000009000BC013
:101920003D000BC03D00090018C024407FE022406C
:1019300031800000180024C01B000D80324001805F
:1019400003801C4027401C800740004010006000BE
:1019500000000000000000000000000000001F80E8
:10196000204040200000402020401F800000000058
:10197000090006001F8006000900000004000400A2
:101980003F80040004000000001000600000000020
:101990000000000004000400040004000400000033
:1019A000000000400000000000000000002001C016
:1019B00006003800400000001F80204020402040EA
:1019C0001F800000000010403FC0004000000000E9
:1019D00018C02140224024401840000010802040C0
:1019E000244024401B80000002000D0011003FC075
:1019F000014000003C80244024402440238000001B
:101A00001F80244024403440038000003000200028
:101A100027C03800200000001B80244024402440C0
:101A20001B8000001C0022C0224022401F800000BA
:101A3000000000000840000000000000000000005E
:101A40000460000000000000000004000A00110013
:101A50002080404009000900090009000900000039
:101A600000004040208011000A00040018002000FF
:101A700023402400180000001F80204027402940F8
:101A80001F400000004007C039000F0001C00040A7
:101A900020403FC0244024401B8000001F80204085
:101AA000204020403080000020403FC020402040A7
:101AB0001F80000020403FC024402E4030C0000066
:101AC00020403FC024402E00300000000F00108056
:101AD000204022403380020020403FC00400040028
:101AE0003FC02040204020403FC020402040000018
:101AF0000060202020203FC02000200020403FC068
:101B000024400B0030C0204020403FC02040004017
:101B1000004000C03FC03C0003C03C003FC000008C
:101B200020403FC00C4023003FC020001F802040C9
:101B3000204020401F80000020403FC0244024005F
:101B4000180000001F802140214020E01FA000005D
:101B500020403FC02440260019C0004018C0244047
:101B60002440224031800000300020403FC020400F
:101B70003000000020003F80004000403F802000F7
:101B800020003E0001C0070038002000380007C0D8
:101B90003C0007C038000000204039C0060039C0B2
:101BA000204000002000384007C0384020000000DE
:101BB000304021C02640384020C000000000000016
:101BC0007FE0402040200000000070000C000380F7
:101BD000004000000000402040207FE000000000A6
:101BE0000000200040002000000000000010001055
:101BF0000010001000100010000000004000000065
:101C000000000000000002800540054003C00040C5
:101C100020003FC004400440038000000000038017
:101C200004400440064000000000038004402440BB
:101C30003FC0004000000380054005400340000015
:101C4000000004401FC0244024402000000002E0A7
:101C5000055005500650042020403FC004400400B9
:101C600003C000400000044027C000400000000006
:101C700000100010041027E00000000020403FC0CA
:101C80000140070004C00440204020403FC0004005
:101C90000040000007C0040007C0040003C00000AB
:101CA000044007C00440040003C00040000003805B
:101CB0000440044003800000041007F00450044076
:101CC00003800000000003800440045007F000106F
:101CD000044007C002400400040000000000064069
:101CE0000540054004C00000000004001F800440BF
:101CF00000400000040007800040044007C000408E
:101D00000400070004C0018006000400060001C0B2
:101D1000070001C006000000044006C0010006C024
:101D2000044000000410071004E0018006000400D5
:101D30000000044005C00640044000000000000010
:101D400004007BE040200000000000000000FFF0E5
:101D500000000000000040207BE0040000000000C4
:101D600040008000400020002000400000000000F3
:101D70000000000000000000000000000000000063
:101D800000001FCC000C0000000000000000080054
:101D9000300060000800300060000000022003FCFA
:101DA0001E20022003FC1E200220000000000E184E
:101DB00011043FFF10840C78000000000F00108415
:101DC0000F3800C0077818840078000000780F846E
:101DD00010C411240E9800E4008400080800680074
:101DE0007000000000000000000000000000000083
:101DF000000007E018182004400200000000400224
:101E00002004181807E00000000000000240024013
:101E100001800FF00180024002400000008000803D
:101E200000800FF800800080008000000001000D9D
:101E3000000E000000000000000000000000008014
:101E40000080008000800080008000800000000C86
:101E5000000C000000000000000000000000000670
:101E6000001800600180060018002000000007F044
:101E7000080810041004080807F000000000080417
:101E800008041FFC000400040000000000000E0C09
:101E900010141024104411840E0C000000000C18C3
:101EA00010041104110412880C700000000000E0FE
:101EB0000320042408241FFC0024000000001F98B5
:101EC000108411041104108810700000000007F045
:101ED00008881104110418880070000000001C001C
:101EE000100010FC13001C001000000000000E3851
:101EF00011441084108411440E38000000000700C3
:101F0000088C10441044088807F00000000000000E
:101F10000000030C030C00000000000000000000A3
:101F20000001010600000000000000000000008029
:101F300001400220041008081004000002200220C2
:101F400002200220022002200220000000001004D3
:101F500008080410022001400080000000000E006C
:101F60001200100C106C10800F00000003E00C1821
:101F700013E4142417C4082807D000000004003C10
:101F800003C41C40074000E4001C000410041FFCB4
:101F90001104110411040E880070000003E00C18F5
:101FA00010041004100410081C10000010041FFC82
:101FB000100410041004080807F0000010041FFCAF
:101FC0001104110417C410040818000010041FFCA9
:101FD0001104110017C010000800000003E00C18E5
:101FE0001004100410441C780040000010041FFC72
:101FF00010840080008010841FFC10040000100476
:1020000010041FFC10041004000000000003000175
:10201000100110011FFE10001000000010041FFC32
:10202000110403801464181C1004000010041FFC29
:102030001004000400040004000C000010041FFC45
:102040001F0000FC1F001FFC1004000010041FFCF8
:102050000C04030000E010181FFC100007F0080833
:10206000100410041004080807F0000010041FFCFE
:1020700010841080108010800F00000007F00818F6
:1020800010241024101C080A07F2000010041FFC82
:102090001104110011C011300E0C000400000E1CC0
:1020A00011041084108410441C3800001800100023
:1020B00010041FFC100410001800000010001FF88E
:1020C00010040004000410041FF8100010001E008B
:1020D00011E0001C007013801C0010001FC0103C99
:1020E00000E01F0000E0103C1FC000001004180CAE
:1020F000163401C001C01634180C100410001C0066
:10210000130400FC13041C00100000000804101C41
:102110001064108413041C04101800000000000058
:1021200000007FFE4002400240020000000030003C
:102130000C0003800060001C00030000000040024F
:10214000400240027FFE000000000000000000008E
:10215000200040004000400020000000000100017D
:102160000001000100010001000100010000400029
:102170004000200000000000000000000000009867
:10218000012401440144014400FC000410001FFC30
:102190000088010401040088007000000000007045
:1021A00000880104010401040088000000000070A0
:1021B00000880104010411081FFC0004000000F85D
:1021C000014401440144014400C80000000001042E
:1021D00001040FFC1104110411001800000000D6C6
:1021E00001290129012901C90106000010041FFC71
:1021F000008401000100010400FC0004000001044F
:10220000190419FC00040004000000000000000391
:1022100000010101190119FE0000000010041FFC5B
:102220000024004001B4010C01040000000010046F
:1022300010041FFC0004000400000000010401FC65
:102240000104010001FC0104010000FC010401FC87
:10225000008401000100010400FC0004000000F8FB
:10226000010401040104010400F80000010101FF60
:102270000085010401040088007000000000007067
:10228000008801040104010501FF000101040104AB
:1022900001FC00840104010001800000000000CC6A
:1022A0000124012401240124019800000000010000
:1022B000010007F80104010400000000010001F81A
:1022C000000400040004010801FC00040100018076
:1022D0000170000C001001600180010001F0010C90
:1022E000003001C00030010C01F0010000000104C9
:1022F000018C00740170018C010400000101018156
:102300000171000E001801600180010000000184CD
:10231000010C013401440184010C000000000000A4
:102320000000000001003EFC4002400200000000EE
:1023300000000000FFFF000000000000000040025D
:1023400040023EFC010000000000000000006000B0
:1023500080008000400040002000200000000000BD
:10236000000000000000000000000000000000006D
:10237000000000000000000000000000000000005D
:102380000000000000000000000000000000000F3E
:1023900080380FFE380F8038000000000000000079
:1023A0000000000000000000000001000006000026
:1023B0000C00003800003100000600000C0000385E
:1023C0000000300000000000000000006180006795
:1023D000F807F98000618000618000618000618001
:1023E0000067F807F980006180000000000000002D
:1023F000000001C0E003E0F00630080418081FFFE9
:10240000FE040E080787F00381E0000000000000D2
:1024100001F000060C00040408060C7001F9C0006D
:102420000E00003BE000EC18070808040C1800033D
:10243000E00000000001E00007F003F818041C08A9
:1024400004170807E1D003C0E00023B0003C0800F7
:102450002008000010000000000000010000310012
:10246000003200001C00000000000000000000001E
:10247000000000000000000000000000000000005C
:102480000000000000000000000000007F0001FFCD
:10249000C00780F00C0018100004200002000000AB
:1024A0000000002000021000040C00180780F0015A
:1024B000FFC0007F000000000000000000000000DE
:1024C00000000000000000004200006600006600FE
:1024D000003C0000180003FFC0001800003C000092
:1024E00066000066000042000000000008000008CE
:1024F0000000080000080000080001FFC0000800FC
:1025000000080000080000080000080000000000AB
:10251000000100003100003200001C00000000003B
:1025200000000000000000000000000000000000AB
:10253000000000000800000800000800000800007B
:10254000080000080000080000080000080000085B
:10255000000000000000000000000000380000380B
:102560000000380000000000000000000000000033
:102570000000000000000000000000000006000055
:102580001C000070000180000E0000380000C00038
:102590000700001C000030000000000000000000E8
:1025A0007F8001FFE003807006001804000804002B
:1025B0000806001803807001FFE0007F8000000023
:1025C00000000000000001000801000801000803ED
:1025D000FFF807FFF80000080000080000080000EE
:1025E0000000000000000001C03802C0580400983C
:1025F000040118040218040418061C1803F8180132
:10260000E0F800000000000000000001C0E003C08E
:10261000F004000804080804080806180803F41861
:1026200001E7F00001E000000000000000000000F1
:102630000300000D0000110000610000810803018B
:102640000807FFF80FFFF80001080001080000006C
:102650000000000000E007FCD0060808061008068D
:102660001008061008061838060FF00607C000000C
:1026700000000000000000003F8001FFE003843004
:1026800002081804100804100804100807181003A2
:102690000FF00007C000000000000000000003C0B1
:1026A000000700000600000600F80607F8061800FC
:1026B00006E0000700000600000000000000000126
:1026C000E1E003F7F0063410041808041808040CBD
:1026D00008040C0806161803F3F001C1E00000001E
:1026E00000000000F80003FC300306380402080470
:1026F00002080402080404100308F001FFC0007F70
:1027000000000000000000000000000000000000C9
:1027100000000000703800703800703800000000C1
:1027200000000000000000000000000000000000A9
:102730000000000000000000301A00301C00000003
:102740000000000000000000000000000000000089
:10275000000000080000140000220000410000807A
:102760008001004002002004001008000800000062
:1027700000000000210000210000210000210000D5
:102780002100002100002100002100002100002183
:102790000000000000000000000008000804001015
:1027A0000200200100400080800041000022000063
:1027B000140000080000000000000003C00004C076
:1027C00000040000080038080F3808083808100016
:1027D0000C300007E00003C0000000000000000013
:1027E0003F8000FFE0038070020F1006708804C075
:1027F00088048308047F8802C09003012000FE4003
:102800000000080000180001F8003E0801C200079F
:10281000020007E20000FE00001FC80001F80000EF
:102820003800000804000807FFF807FFF80408084C
:1028300004080804080804080806180803F4180126
:10284000E7F00001E0000000000000003F8001FF11
:10285000E003807002001804000804000804000867
:102860000400100600200780C000000004000807D4
:10287000FFF807FFF804000804000804000804003B
:102880001802001003807001FFE0007F800000004C
:1028900004000807FFF807FFF80408080408080404
:1028A0000808040808043E0804000806001801008F
:1028B0006000000004000807FFF807FFF80408089C
:1028C000040800040800040800043E000600000696
:1028D0000000018000000000000000003F8001FFB8
:1028E000E0038070060018040008040208040208CF
:1028F0000203F00783F00002000002000400080752
:10290000FFF807FFF80408080008000008000008A6
:102910000000080004080807FFF807FFF804000893
:10292000000000000000040008040008040008077C
:10293000FFF807FFF804000804000804000800007E
:102940000000000000000000000600000700000179
:1029500004000104000104000307FFFE07FFFC045C
:10296000000004000004000004000807FFF807FF4F
:10297000F8040C08001800003E0004C7800503C8D6
:102980000600F804003804001800000804000807D6
:10299000FFF807FFF8040008000008000008000026
:1029A0000800000800000800001800006000000097
:1029B00004000807FFF807800807FC00007FC0003C
:1029C00003F80007C000780007800807FFF807FF3A
:1029D000F804000804000807FFF807000803C00017
:1029E00000E000003800001E000007000001C004E5
:1029F00000F007FFF8040000000000007F8001FFE6
:102A0000E00380700600180400080400080600189F
:102A100003003001FFE0007F800000000400080791
:102A2000FFF807FFF8040408040400040400040489
:102A300000040400060C0003F80001F00000000090
:102A4000000000007F8001FFE00380700600880422
:102A500000880400C806003C03003E01FFE6007F3A
:102A60008400000004000807FFF807FFF8040808C6
:102A7000040800040C00040F00040BC00610F0034F
:102A8000F03801E00800000800000001E0F803F061
:102A900030063010041808041808040C08040C0848
:102AA0000206180207F00781E0000000018000061E
:102AB000000004000004000004000807FFF807FFFE
:102AC000F804000804000004000006000001800073
:102AD00004000007FFE007FFF004001800000800F2
:102AE000000800000800000800000804001007FFAC
:102AF000E004000004000006000007E00007FE00FC
:102B0000041FE00001F80000380001E0043E000767
:102B1000C00006000004000004000007E00007FFFA
:102B2000C0041FF80007C007F80007FF80043FF843
:102B30000007C004F80007000004000000000004C3
:102B4000000806001807C07805F1C8003E00001F05
:102B5000800463E80780F8060018040008000000FD
:102B600004000006000007800007E008047C08005D
:102B70001FF80007F800180804E008070000060026
:102B8000000400000000000100080600380400F8FE
:102B90000403E8040F08047C0805F00807C00807D0
:102BA00000180400600000000000000000000000A9
:102BB000000000000000003FFFFE20000220000295
:102BC000200002200002200002000000000000009F
:102BD000000008000007000000C0000038000006E8
:102BE000000001C000003000000E000001000000E5
:102BF000000000000000200002200002200002204F
:102C000000022000023FFFFE000000000000000064
:102C100000000000000000000000000000080000AC
:102C200010000030000020000030000010000008FC
:102C30000000000000000000000001000001000092
:102C4000010000010000010000010000010000017E
:102C50000000010000010000010000010000000070
:102C60000000000000200000200000100000100004
:102C70000000000000000000000000000000000054
:102C80000000000000F00019F8001B1800220800E6
:102C90002608002408002410003FF8001FF8000058
:102CA0000800001800000004000007FFF80FFFF004
:102CB0000018180010080020080020080030180034
:102CC0001FF0000FC00000000000000007C0001F40
:102CD000F0001830002008002008002008003C0800
:102CE000001C100000600000000000000000000058
:102CF00007C0001FF000381800200800200800203E
:102D00000804101007FFF80FFFF00000100000008B
:102D10000000000000000007C0001FF0001230009B
:102D20002218002208002208003208001E10000E9F
:102D30002000000000000000200000200800200803
:102D400001FFF803FFF80620080420080420080704
:102D5000200003000000000000000000000E000E34
:102D60006E001FF30031B10020B10020B10031919D
:102D7000001F13002E1E00200E0030000000000473
:102D8000000807FFF80FFFF80010080020000020DF
:102D900000002008003FF8001FF8000008000000B5
:102DA00000000000000000200800200800200806A5
:102DB0003FF8063FF8000008000008000008000087
:102DC00000000000000000000000000003000003FD
:102DD000002001002001002003063FFE063FFC000A
:102DE000000000000000000000000004000807FFD1
:102DF000F80FFFF8000188000300002FC00038F82A
:102E0000002038002008000008000000000000003A
:102E1000000004000804000804000807FFF80FFF82
:102E2000F800000800000800000800000000000092
:102E3000002008003FF8003FF800100800200000C4
:102E40003FF8003FF8001008002000003FF8003F66
:102E5000F8000008000000002008003FF8003FF8DC
:102E6000001008001000002000002008003FF800BB
:102E70001FF80000080000000000000007C0000F5D
:102E8000F00018300030080020080020080030084A
:102E9000001830000FF00007C00000000000000024
:102EA0002001003FFF003FFF00101100200900201B
:102EB00008002008003038001FF0000FC00000009C
:102EC0000000000007C0001FF000381800200800B4
:102ED0002008002009001011001FFF003FFF000024
:102EE00001000000002008002008002008003FF832
:102EF000003FF8000808001008002008002000002B
:102F00003000003000000000000000000000000C55
:102F100078001E18003308002308002108002188CB
:102F20000021980030F00038600000000000000030
:102F3000200000200000200000FFF003FFF8002028
:102F400008002008002008000030000000000000F9
:102F5000000000002000003FF0007FF80000180093
:102F60000008000008002010003FF8007FF000007B
:102F700010000000000000002000003000003C00B5
:102F8000003F800023F000007800007000238000E4
:102F90003C00003000002000002000003C00003F0A
:102FA000E00023F80000E0002700003E00003FE0C2
:102FB0000021F80001E0003E0000200000000000B9
:102FC0002008002008003838003E680027800003F1
:102FD000C8002CF800383800201800200800000035
:102FE000000000002000003003003C01003F83008F
:102FF00023EC000070002380003C00002000002033
:103000000000000000000000000000380800203828
:103010000020F80023E8002F88003E080038080050
:1030200020180000700000000000000000000000F8
:10303000000000000000000008000014001FF7FC62
:103040003000062000020000000000000000000028
:103050000000000000000000000000000000FFFF72
:10306000FF00000000000000000000000000000061
:103070000000000000002000023000061FF7FC00E6
:103080001400000800000000000000000000000024
:103090000000000000000018000060000040000078
:1030A00040000020000010000008000004000004A0
:1030B00000000C00001000000000000000000000F4
:1030C0000000000000000000000000000000000000
:1030D00000000000000000000000000000000000F0
:1030E00000000000000000000000000000000000E0
:1030F00000000000000000000000000000000000D0
:1031000000000000000000000000000000000000BF
:1031100007F000C007FFE1E007F001E0000000C099
:10312000000000000000000000000000000000009F
:10313000000000000000000000000000000000008F
:103140000020000001C00000078000001F000000F8
:103150001E0000001C20000001C0000007800000CD
:103160001F0000001E0000001C0000000000000006
:1031700000000000000000000000000000180C002B
:1031800000180C0000180FE0001FFC0003F80C00F2
:1031900000180C0000180C0000180C0000180C009F
:1031A00000180FE0001FFC0003F80C0000180C00D2
:1031B00000180C00000000000000000000000000EB
:1031C00000000780007807C000FC0640010E0020C8
:1031D00003070020020380200FFFFFFC0201C02034
:1031E0000200E0600130704001F03F8000F01F00FD
:1031F000000000000000000000FE000001FF0000D1
:103200000301800002008060030181C001FF07000C
:1032100000FE18000000E0000003BF00000CFFC02B
:103220000071806001C10020030180600000FFC0C8
:1032300000003F000000000000001F0000007FC0F1
:1032400000FCC0C001FF80600303E0200202782080
:1032500002061E2003FC074001F00380000103C0AA
:1032600000011C600001E02000010020000100407E
:1032700000000180000000000000000000200000AD
:103280001C6000001C4000001F8000000F000000B8
:10329000000000000000000000000000000000002E
:1032A000000000000000000000000000000000001E
:1032B000000000000000000000000000000000000E
:1032C00000000000000000000000000000000000FE
:1032D000000000000007F800003FFF00007807C072
:1032E00001C000E0030000300400000808000004F2
:1032F00010000002000000000000000010000002AA
:1033000008000004040000080300003001C000E0D1
:10331000007807C0003FFF000007F8000000000031
:10332000000000000000000000000000000000009D
:10333000000000000000000000000000000000008D
:10334000000C1800000E3800000E38000006300097
:10335000000360000061438000FFFF8000614300C4
:103360000003600000063000000E3800000E380038
:10337000000C180000000000000000000000000029
:10338000000080000000800000008000000080003D
:103390000000800000008000007FFF00000080002F
:1033A000000080000000800000008000000080001D
:1033B000000080000000000000000000000000018C
:1033C000000000E3000000E2000000FC00000078C4
:1033D00000000000000000000000000000000000ED
:1033E00000000000000000000000000000000000DD
:1033F000000000000000000000000000000080004D
:1034000000008000000080000000800000008000BC
:1034100000008000000080000000800000008000AC
:10342000000080000000800000008000000080009C
:10343000000080000000000000000000000000000C
:10344000000000C0000001E0000001E0000000C03A
:10345000000000000000000000000000000000006C
:10346000000000000000000000000000000000005C
:103470000000000000000000000000000000000C40
:1034800000000038000000E00000038000000E0093
:10349000000038000000E00000038000000E000083
:1034A0000038000000E00000038000000E00000073
:1034B00018000000000000000000000000000000F4
:1034C000000FF800007FFF0000F00780018000C0BF
:1034D0000300006002000020020000200200002023
:1034E00003000060018000C000E00380007FFF0057
:1034F000000FF800000000000000000000000000C5
:1035000000000000008000200080002000800020DB
:103510000080006001FFFFE003FFFFE000000060AB
:10352000000000200000002000000020000000003B
:10353000000000000000000000000000000000008B
:10354000007800E000980160010002600200046061
:10355000020008600200106002002060020040606B
:10356000030080600183006001FE00E0007C0780B2
:10357000000000000000000000000000000000004B
:1035800000F0078001F007C00100004002000020A9
:10359000020100200201002002010020030380201C
:1035A0000186804001FCC0C000787F8000001E00C2
:1035B0000000000000000000000000000000080003
:1035C00000003800000048000001880000060800E4
:1035D000000C0810003008100040081001FFFFF038
:1035E00003FFFFF003FFFFF00000081000000810C9
:1035F00000000810000000000000000000000000B3
:1036000000000780001F864003E100200302002025
:10361000030400200304002003040020030400200E
:1036200003060040030301C00301FF8003007E0086
:10363000000000000000000000000000000000008A
:103640000007FC00003FFF000070C380008180C0C5
:10365000010100600302002002020020020200209B
:10366000020200200203004001C180C000C0FF80B0
:1036700000007E00000000000000000000000000CC
:1036800000F0000003C00000038000000300000001
:10369000030007E003003FE00301C0000306000051
:1036A0000318000003600000038000000300000016
:1036B00000000000000000000000000000001F00EB
:1036C00000783F8000FC60C0018EC040030780206E
:1036D0000203002002018020020180200201C0209C
:1036E0000301E040018670C000FC3F8000781F00AD
:1036F000000000000000000000000000003F00008B
:1037000000FF81C001C0C1C0010060200200202074
:10371000020020200200202002002060020040C0A1
:103720000100C18000C18F00007FFE00001FF0007B
:103730000000000000000000000000000000000089
:103740000000000000000000000000000000000079
:10375000000300C0000781E0000781E0000300C013
:103760000000000000000000000000000000000059
:103770000000000000000000000000000000000049
:103780000000000000000000000000000000000039
:10379000000600660006007800000000000000003F
:1037A0000000000000000000000000000000000019
:1037B0000000000000000000000000000000000009
:1037C000000080000001C00000036000000630001F
:1037D000000C180000180C00003006000060030008
:1037E00000C0018001000040020000200400001021
:1037F00000000000000000000000000000041000B5
:103800000004100000041000000410000004100068
:103810000004100000041000000410000004100058
:103820000004100000041000000410000004100048
:103830000004100000000000000000000000000074
:1038400004000010020000200100004000C00180C0
:10385000006003000030060000180C00000C180087
:1038600000063000000360000001C000000080007E
:103870000000000000000000000000000000000048
:103880000078000001F8000002380000020000008B
:10389000040000C0040079E0040081E0040100C0DD
:1038A00004030000020200000306000001FC000007
:1038B00000F800000000000000000000000FF80009
:1038C000003FFE000070078000C000C00101F8400A
:1038D0000307FC20021E04200230082002203020B2
:1038E000023FFC20013F044001800CC000E0318019
:1038F000001FC20000000000000000200000006067
:10390000000003E000003E200003E020003E200015
:1039100003E020000380200007FC2000003FE000BF
:103920000003FE2000003FE0000001E00000002056
:103930000000002000000000000000000200002045
:103940000200002003FFFFE003FFFFE00201002070
:1039500002010020020100200201002002010020DB
:10396000030300200186806001FCC0C000F87F8056
:1039700000001F0000000000000000000007F80029
:10398000003FFF000070078000C000C00100004041
:10399000030000200200002002000020020000209E
:1039A0000200002001000040018000C003C001802F
:1039B00000300600000000000000000002000020AF
:1039C0000200002003FFFFE003FFFFE002000020F1
:1039D000020000200200002002000020030000601E
:1039E00001000040018000C000F00780007FFE0061
:1039F000000FF8000000000000000000020000209E
:103A00000200002003FFFFE003FFFFE002010020AF
:103A1000020100200201002002010020020100201A
:103A200002038020020FE0200300006003C000E0DA
:103A30000060030000000000000000000200002001
:103A40000200002003FFFFE003FFFFE0020100206F
:103A5000020100200201000002010000020100003A
:103A60000201000002038000030FE00003000000D9
:103A700003C0000000600000000000000007F80024
:103A8000003FFE000070078001C001C0010000403F
:103A9000030000200200002002000020020000209D
:103AA000010020200100204003C03F8000303F8003
:103AB0000000200000002000020000200200002082
:103AC00003FFFFE003FFFFE00200802002008020F0
:103AD00000008000000080000000800002008020C4
:103AE0000200802003FFFFE003FFFFE00200002050
:103AF00002000020000000000000000000000000A4
:103B0000000000000200002002000020020000204F
:103B10000200002003FFFFE003FFFFE0020000209F
:103B2000020000200200002002000020000000002F
:103B30000000000000000000000000000000000E77
:103B40000000000F0000000F000000010200000153
:103B500002000001020000030200000603FFFFFC58
:103B600003FFFFF802000000020000000200000056
:103B70000200000000000000000000000200002021
:103B80000200002003FFFFE003FFFFE00200C0206F
:103B90000201002000078000000FE0000030F80064
:103BA00002603E2003800F20030003E0020000E0DB
:103BB00002000020000000200000000002000020A1
:103BC0000200002003FFFFE003FFFFE002000020EF
:103BD0000200002000000020000000200000002063
:103BE000000000200000002000000060000000E055
:103BF000000003000000000002000020020000207E
:103C000003FFFFE003E0002003FF0020001FF0009F
:103C10000001FF8000000FE000001E000003E00034
:103C2000003E002003E0002003FFFFE003FFFFE071
:103C300002000020020000200200002002000020FC
:103C400003FFFFE00380002003F0002000FC0000E1
:103C5000001F00000007C0000001F00000007C0011
:103C600002001F80020007E003FFFFE002000000E7
:103C7000020000000000000000000000000FF8003B
:103C8000003FFE0000F00780018000C001000040FE
:103C9000020000200200002002000020020000209C
:103CA00001000040018000C000F00380003FFE00E2
:103CB000000FF800000000000000000002000020DB
:103CC0000200002003FFFFE003FFFFE0020080206E
:103CD00002008020020080000200800002008000BC
:103CE00002008000030180000183000000FE00004C
:103CF000007C00000000000000000000000FF80041
:103D0000007FFF0000F00380018001C00100064039
:103D1000020004200200042002000620020003E04A
:103D2000010000F80180005C00E0038C003FFF0C04
:103D3000000FFC180000000000000000020000203E
:103D40000200002003FFFFE003FFFFE0020100206C
:103D500002010020020180000201E0000201FC00DB
:103D600003033F80018607E001FC00E000F800202B
:103D70000000002000000000000000000000000023
:103D80000078060000FE01E0018600C00303004049
:103D90000203002002018020020180200201C020D5
:103DA0000200C0200100E060018070C003E03F809D
:103DB00000001F0000000000000000000060000084
:103DC0000380000003000000020000000200002049
:103DD0000200002003FFFFE003FFFFE002000020DD
:103DE000020000200200000002000000038000002A
:103DF00000E00000000000000200000002000000DF
:103E000003FFFF0003FFFFC002000040020000604C
:103E10000000002000000020000000200000002022
:103E2000020000400200008003FFFF0002000000CB
:103E3000020000000000000000000000020000007E
:103E40000200000003C0000003FC0000023FC000AD
:103E50000003F80000007F80000007E000000780FA
:103E6000000078000203C000023C000003C0000014
:103E700002000000020000000200000003C0000079
:103E800003FF8000023FFE0002007FE000000F0001
:103E90000200F00003EF000003FF8000020FFE00AD
:103EA00000003FE000001F000207E00003F80000F0
:103EB00003000000020000000000000002000020DB
:103EC00002000020038000E003F0032002FC0C202D
:103ED000021F30000007C0000007F00002187C003D
:103EE00002601F20038003E0020000E002000020C7
:103EF00000000020000000000000000002000000A0
:103F00000300000003C0000003F80000023E002090
:103F1000020FC0200001FFE000007FE000038020CE
:103F2000021C00200270000003800000020000005C
:103F3000020000000000000000000000000000205F
:103F4000006000E0038003E003000FA002003E20B9
:103F50000200F8200203E020020F8020023E002031
:103F60000278002003E00060038000E0020003000C
:103F70000000000000000000000000000000000041
:103F80000000000000000000000000000000000031
:103F90001FFFFFFC100000041000000410000004CC
:103FA00010000004100000041000000410000004C1
:103FB0000000000000000000000000000000000001
:103FC000000000000700000003C0000000780000AF
:103FD000001E00000003C0000000F00000001E00F2
:103FE00000000780000000F00000003C0000000618
:103FF00000000000000000000000000000000000C1
:104000001000000410000004100000041000000460
:104010001000000410000004100000041FFFFFFC4B
:104020000000000000000000000000000000000090
:104030000000000000000000000000000000000080
:10404000000000000000000002000000040000006A
:104050000800000018000000100000001800000018
:104060001800000004000000020000000000000032
:10407000000000000000000000000001000000013E
:10408000000000010000000100000001000000012C
:10409000000000010000000100000001000000011C
:1040A000000000010000000100000001000000010C
:1040B00000000001000000010000000000000000FE
:1040C00000000000100000001000000010000000C0
:1040D00018000000080000000400000000000000BC
:1040E00000000000000000000000000000000000D0
:1040F000000000000000000000000000000003803D
:1041000000018FC000038C600006182000041020FE
:10411000000410200004202000042040000620405D
:104120000003FFC00001FFE00000002000000020AD
:10413000000000C0000000000000000002000000BD
:104140000200000003FFFFE007FFFFC0000180C086
:104150000002006000020020000400200004002093
:104160000004002000060040000300C00001FF80A2
:104170000000FE0000000000000000000000000041
:1041800000007E000001FF80000381C000020040AB
:10419000000600200004002000040020000400208D
:1041A000000600200003C0400001C08000000300A2
:1041B00000000000000000000000000000000000FF
:1041C00000007E000001FF80000380C00006006048
:1041D000000400200004002000040020020400402D
:1041E0000202008003FFFFE007FFFFC00000004065
:1041F000000000400000000000000000000000007F
:1042000000007E000001FF80000311C0000210408A
:10421000000410600004102000041020000410208E
:1042200000061020000310400001F0C000007100E3
:10423000000000000000000000000000000000007E
:1042400000040000000400200004002000040020FE
:10425000007FFFE001FFFFE00104002003040020D5
:1042600002040020020400200204000002000000FA
:1042700001C0000001C000000000000000000000BC
:104280000000001C0000E33E0003FFC200020CC35C
:10429000000404C1000404C1000404C1000404C1FA
:1042A00000060CC10003F8C30005F0620006007EA2
:1042B0000006003C0000000000000000020000209A
:1042C0000200002003FFFFE007FFFFE000010020E5
:1042D00000020020000600000004000000040000AE
:1042E00000040020000600200003FFE00001FFE0C2
:1042F000000000200000002000000000000000007E
:104300000000000000040020000400200004002041
:10431000000400200387FFE0038FFFE003800020FC
:10432000000000200000002000000020000000002D
:10433000000000000000000000000000000000007D
:10434000000000000000000600000007000000015F
:10435000000000010004000100040001000400034B
:10436000000400060387FFFC038FFFF803800000B2
:10437000000000000000000000000000020000201B
:104380000200002003FFFFE007FFFFE0000008201D
:1043900000001020000030000000FC0000058E002E
:1043A000000707A0000601E0000400E00004002070
:1043B00000000020000000000000000000000000DD
:1043C0000000000002000020020000200200002087
:1043D0000200002003FFFFE007FFFFE000000020D5
:1043E000000000200000002000000020000000006D
:1043F0000000000000000000000000000004002099
:104400000007FFE0000FFFE00002002000040000B2
:10441000000400200007FFE00003FFE0000200208E
:1044200000040000000400200007FFE00003FFE09C
:104430000000002000000000000000000004002038
:10444000000400200007FFE0000FFFE00001002053
:104450000002002000020000000400000004000030
:1044600000040020000600200003FFE00001FFE040
:1044700000000020000000200000000000000000FC
:1044800000007E000000FF80000381C000020040A9
:10449000000600200004002000040020000400208A
:1044A0000006002000020040000381C00001FF80E0
:1044B00000007E0000000000000000000004000179
:1044C000000400010007FFFF000FFFFF000100C113
:1044D000000200410004002000040020000400202D
:1044E0000004002000060040000301C00001FF801E
:1044F00000007E000000000000000000000000003E
:1045000000007E000001FF80000380C00002006008
:10451000000400200004002000040020000400200B
:1045200000020041000300C10003FFFF0007FFFF7E
:104530000000000100000001000000000004002055
:10454000000400200004002000040020000FFFE011
:10455000000FFFE00000C02000010020000200204A
:104560000006002000040000000400000007000016
:104570000003000000000000000000000000000038
:10458000000003E00001C0E00003E040000630202E
:104590000004302000041820000418200004182013
:1045A00000040C2000020C60000307C00007838099
:1045B00000000000000000000000000000000000FB
:1045C000000400000004000000040000000C0000D3
:1045D000001FFF8000FFFFC00004006000040020F7
:1045E00000040020000400200004004000000180BE
:1045F00000000000000000000000000000040000B7
:10460000000400000007FF80000FFFC000000060F2
:10461000000000200000002000000020000000201A
:1046200000040040000400800007FFE0000FFFC00E
:1046300000000040000000400000000000040000F6
:1046400000040000000780000007F0000004FE00E6
:1046500000041FC0000003E00000038000001C00F5
:104660000004600000078000000600000004000055
:104670000000000000000000000400000006000030
:104680000007C0000007FC0000043F80000003E0BA
:1046900000040F800006F0000007F0000007FF8014
:1046A00000040FE00000038000043C000007C0008D
:1046B00000060000000400000000000000000020D0
:1046C0000004002000040060000700E000078320D1
:1046D0000007E6000004F80000003C0000045E2033
:1046E000000587A0000601E000040060000400202F
:1046F0000000002000000000000000000004000096
:1047000000040003000700030007E0010004F801B3
:1047100000041F02000007FC000000E0000007008A
:10472000000438000007C00000060000000400007C
:104730000004000000000000000000000000000075
:1047400000078060000600E0000403E0000407A00A
:1047500000040E2000043C20000470200005E0202E
:104760000007802000070060000400E000000380D4
:104770000000000000000000000000000000000039
:104780000000000000000000000000000000000029
:1047900000000000000080000000800000014000D8
:1047A00007FE3FF80800000410000002100000029D
:1047B00000000000000000000000000000000000F9
:1047C00000000000000000000000000000000000E9
:1047D0000000000000000000FFFFFFFF00000000DD
:1047E00000000000000000000000000000000000C9
:1047F00000000000000000000000000000000000B9
:1048000010000002100000020800000407FE3FF83C
:104810000001400000008000000080000000000057
:104820000000000000000000000000000000000088
:104830000000000000000000000000001800000060
:104840003000000040000000400000004000000078
:1048500020000000300000000800000004000000FC
:104860000200000002000000020000000C00000036
:104870001800000000000000984800080000002018
:10488000100000007C140008A84800081000002058
:10489000680400008C1400083200000000000000D2
:0848A000000000000000000010
:040000050800018965
:00000001FF
