:020000040800F2
:1000000070040020A1010008D50300088D0300083A
:10001000D103000815020008A90A0008000000002A
:10002000000000000000000000000000D9030008EC
:100030001902000800000000D7030008B9010008F9
:10004000BB010008BB010008BB010008BB010008A0
:10005000BB010008BB0100081D020008BB0100082D
:10006000BB0100085D020008F5020008BB010008A2
:10007000BB010008BB010008BB010008BB01000870
:10008000BB010008BB010008BB010008BB01000860
:10009000BB010008BB010008BB010008BB01000850
:1000A000BB01000899060008BB010008BB0100085D
:1000B000BB010008BB010008BB010008BB01000830
:1000C000BB010008BB010008BB010008BB01000820
:1000D000BB01000899080008BB010008BB0100082B
:1000E000BB010008BB010008BB010008BB01000800
:1000F000BB010008BB010008BB010008BB010008F0
:10010000BB010008BB010008BB010008BB010008DF
:10011000BB010008BB010008C1060008BB010008C4
:10012000BB010008BB010008BB010008BB010008BF
:10013000BB010008BB010008BB010008BB010008AF
:10014000BB010008BB010008BB010008BB0100089F
:10015000BB010008BB010008BB010008BB0100088F
:10016000BB010008BB010008BB010008BB0100087F
:10017000BB010008BB010008BB010008BB0100086F
:10018000BB010008BB010008DFF810D000F030F818
:1001900000480047A90C0008AFF30080700400205D
:1001A0000648804706480047FEE7FEE7FEE7FEE711
:1001B000FEE7FEE7FEE7FEE7FEE7FEE7C90400080C
:1001C0008901000830B50B46014600202022012499
:1001D00009E021FA02F59D4205D303FA02F5491B15
:1001E00004FA02F52844151EA2F10102F1DC30BD2B
:1001F000064C074D06E0E06840F0010394E8070074
:1002000098471034AC42F6D3FFF7C2FFC00C000889
:10021000E00C000800BFFEE77047000010B50D4875
:10022000006840F001000B490860142000F008FD50
:100230000948006900F0010050B100BF064800699C
:1002400000F001000028F9D14FF4806000F0B0F810
:1002500010BD0000143C01400000024010B51948D8
:10026000006840F008001749086017A000F01EFC65
:10027000142000F0E5FC1548006900F00800F8B90A
:1002800000BF1248006900F008000028F9D01048AB
:100290000078002814DD0E4800780A380C490870F0
:1002A0000846007800F0F2F90A48C46B0848017863
:1002B00009A000F0FBFB21460AA000F0F7FB00BFFD
:1002C00010BD0000143C01402D2D0A00001002401A
:1002D000000000200000014064757479203D202555
:1002E000640A0000737461747573203D2025640AEC
:1002F0000000000010B51948006840F010001749D0
:10030000086017A000F0D2FB142000F099FC1548FB
:10031000006900F01000F8B900BF1248006900F051
:1003200010000028F9D010480078642814DA0E482C
:1003300000780A300C4908700846007800F0A6F9E9
:100340000A48C46B0848017809A000F0AFFB2146B9
:100350000AA000F0ABFB00BF10BD0000143C014040
:100360002B2B0A000010024000000020000001407A
:1003700064757479203D2025640A000073746174EB
:100380007573203D2025640A0000000000BFFEE7D1
:10039000024909680143014A116070471414024080
:1003A000024909688143014A1160704714140240F0
:1003B00000B5034605480068184018B91846FFF70D
:1003C000E7FF02E01846FFF7EBFF00BD1414024000
:1003D00000BFFEE770477047704700000CB5002073
:1003E000019000903448006840F480303249086041
:1003F00000BF3148006800F4003000900198401CB4
:100400000190009818B90198B0F5A04FF1D12A4891
:10041000006800F4003010B10120009001E00020DD
:1004200000900098012846D123484030006840F0F1
:1004300080502149403108602048006840F4404025
:100440001E4908601C48083000681B4908310860D4
:100450000846006840F4004008600846006840F420
:10046000A05008601648091F0860081F006840F087
:100470008070091F086000BF0F48006800F000701E
:100480000028F9D040F205700E4908600A4808308B
:10049000006820F003000849083108600846006839
:1004A00040F00200086000BF03480830006800F018
:1004B0000C000828F8D10CBD003802400070004044
:1004C00008544007003C024010B51548006840F44D
:1004D0007000134908601348006840F0010011499A
:1004E000086000200F49083108600E4800680E4976
:1004F00008400C4908600D48091D0860081F006885
:1005000020F48020091F0860002006490C31086093
:10051000FFF764FF4FF0006001498039086010BDAB
:1005200088ED00E000380240FFFFF6FE10300024A6
:100530005048006840F002004E4908604D481430B1
:10054000006840F001004B4914310860084600681B
:1005500040F4804008604848006820F4E060464964
:1005600008600846006840F440700860434800781E
:1005700040F0F001414801704FF0007040490860C0
:100580004048406A40F080513E484162006840F077
:1005900000403C4908600846006820F08040086040
:1005A000081D006820F40040091D086035480C3023
:1005B000006840F0804033490C310860084600680C
:1005C00020F000400860081F006840F04040091F0C
:1005D00008602D48008820F010002B49088044F264
:1005E0009F10088542F20F70C86241F28830C863DC
:1005F0000846808B20F0030088830846808B40F0FB
:10060000400088830846808B40F02000888308469D
:10061000808B20F0100088830846008C20F4007046
:100620000884042008860846008C40F48070088402
:100630000846008C40F4806008840846808A40F0B8
:10064000010088820846008A20F0010008820846DE
:10065000808940F0010088810846008840F0010050
:1006600008800846B0F8440040F400400649443190
:1006700008807047303802400CED00E019E400E0DB
:1006800000E100E000040240000001400149C863AD
:1006900070470000000001400848008A00F0010097
:1006A00050B10648008A20F001000449088208463B
:1006B000008820F001000880704700000000014021
:1006C00010B50848008A20F0010006490882064853
:1006D000016806A000F0EAF903480068401C0249DE
:1006E000086010BD0010004004000020436F756ECC
:1006F00074203D20256400006448006840F0040038
:100700006249086061481430006840F002005F49A7
:10071000143108600846006840F4804008605C4876
:10072000006820F070605A4908600846006840F090
:100730004070086056482038006840F40050544922
:10074000203908600846006820F480500860081DC1
:10075000006820F04000091D08604D48143800680A
:1007600020F440504A4914390860081F006840F4DA
:100770004050091F08604748008820F01000454994
:100780000880A7204349283108804FF6FF70091DD3
:1007900008604048001D008820F080003D49091D88
:1007A0000880081D008840F00400091D08800846E4
:1007B000008820F0020008800846008820F0010030
:1007C00008800846008840F010000880084600882D
:1007D00020F0200008800846008840F04000088093
:1007E0002C481830008820F002002A49183108806F
:1007F0000846008840F0010008800846008820F480
:10080000807008800846008840F400700880084620
:10081000008820F00C0008800846008820F4406022
:1008200008800846008820F0F0000880084600880C
:1008300020F47040088017482030008820F00A001B
:100840001449203108800846008820F08000088084
:100850000846008840F0200008800846008840F0E4
:10086000010008800846008840F010000880094810
:10087000008840F00100074908800648443000889D
:1008800040F400400349443108807047303802404A
:10089000200802400004014000B51148008800F023
:1008A000200058B10E4880880E490F4A12788854AB
:1008B0000D480078401C0C49087010E0084800887A
:1008C00000F0100058B106480088054880880648A6
:1008D0000178044800F0CEF800200349087000BDFC
:1008E000001001400C0000200100002010B500EEB7
:1008F000900AF8EE600A9FED581AC1EE201AB0EE89
:10090000610AFCEEC00A10EE901A00EE901AF8EEA2
:10091000600A30EE601AF3EE001AF6EE000A41EEBD
:10092000210AFCEEE00A10EE902A4C4B1B6843F0C3
:1009300001034A4C2360494B14331B6843F01003F6
:10094000464C14342360464B5B6A43F07004444BBE
:100950005C625B6A43F4E064414B5C621B6843F495
:1009600000233F4C236023461B6823F4802323602D
:1009700023465B6823F40073636023469B6843F45B
:100980004023A3602346DB6843F48023E3602346CF
:10099000DB6823F40023E36023461B6843F4001361
:1009A000236023461B6823F48013236023465B687F
:1009B00023F48063636023469B6843F44013A36081
:1009C0002346DB6843F48013E3602346DB6823F4AB
:1009D0000013E36042EA0113224C238123469B89E2
:1009E00043F00C03A38123469B8943F03003A3818A
:1009F00023469B8923F48053A38123469B8923F4B8
:100A00008063A38123461B8A23F440532382234619
:100A10009B8943F40053A381104B14331B6843F4A8
:100A200080430E4C1434236023461B6843F4004378
:100A300023600D4B1B6823F4E0630B4C23602346BB
:100A40001B6843F440732360084B1B78074C2370EA
:100A50002023074C236010BDA037A04A3038024045
:100A600000000240001001400CED00E025E400E031
:100A700004E100E010B503460C46002204E0985C57
:100A800000F006F8501CC2B2A242F8DB10BD000014
:100A900000BF0449098801F080010029F9D001490B
:100AA000888070470010014000BFFEE70FB4054B7F
:100AB00010B503A9044A029800F018F810BC5DF8BC
:100AC00014FB0000990C00080800002002E008C890
:100AD000121F08C1002AFAD170477047002001E0B8
:100AE00001C1121F002AFBD1704700002DE9FF4F02
:100AF00089B09B460446002506E025280BD05A46BF
:100B00000B999047641C6D1C20780028F5D10DB01E
:100B10002846BDE8F08F0027B8460122474900E08B
:100B2000074314F8013F203B02FA03F00842F7D1D3
:100B300020782E2819D114F8010F47F004072A282D
:100B40000ED06FF02F022078A0F1300109290CD8C7
:100B500008EB880102EB410100EB0108641CF2E79D
:100B60000A98641C50F8048B0A9020780028CED094
:100B7000642808D0692806D075281ED05A460B99DB
:100B800090476D1C58E00A994FF00A0901C90A9173
:100B9000002802DA40422D2102E0390504D52B213C
:100BA0008DF82010012103E0F90704D02021F7E798
:100BB0008A4608AE0DE00021FAE70A994FF00A09CB
:100BC00001C90A91F7E74946FFF7FCFA303106F808
:100BD000011D0028F7D1ADEB060000F120097807D0
:100BE00001D44FF00108C84502DDA8EB090000E080
:100BF00000208046002706E008A85A46C05D0B99F1
:100C000090476D1C7F1C5745F6DB04E030205A46A8
:100C10000B9990476D1CB8F10001A8F10108F5DCB3
:100C200005E016F8010B5A460B9990476D1CB9F177
:100C30000001A9F10109F4DC641C65E70928010041
:100C400000B5034603E04FF47A7000F005F8181E73
:100C5000A3F10103F7D100BDA82141434FF0E022E9
:100C600051611146096941F0050111611146096997
:100C700021F00201116100BF4FF0E021096901F488
:100C800080310029F8D04FF0E021096921F00101FD
:100C90004FF0E0221161704700B502460B46D0B21A
:100CA000FFF7F6FE104600BD10B54FF4E130FFF738
:100CB0001DFEFFF721FDFFF73BFC002010BD0000EB
:100CC000E00C0008000000200C000000CC0A000826
:100CD000EC0C00080C00002064040000DC0A000892
:0C0CE000320000000000000000000000D6
:040000050800018965
:00000001FF
