:020000040800F2
:1000000088040020A10100082D060008E30500086F
:100010002906000889020008810B00080000000082
:10002000000000000000000000000000CD070008F4
:1000300011030008000000002F060008B9010008A5
:10004000BB010008BB010008BB010008BB010008A0
:10005000BB010008BB01000815030008BB01000834
:10006000BB01000855030008ED030008BB010008B0
:10007000BB010008BB010008BB010008BB01000870
:10008000BB010008BB010008BB010008BB01000860
:10009000BB010008BB010008BB010008BB01000850
:1000A000BB01000831090008BB010008BB010008C2
:1000B000BB010008BB010008BB010008BB01000830
:1000C000BB010008BB010008BB010008BB01000820
:1000D000BB01000879090008BB010008BB0100084A
:1000E000BB010008BB010008BB010008BB01000800
:1000F000BB010008BB010008BB010008BB010008F0
:10010000BB010008BB010008BB010008BB010008DF
:10011000BB010008BB01000859090008BB01000829
:100120008D020008BB010008BB010008BB010008EC
:10013000BB010008BB010008BB010008BB010008AF
:10014000BB010008BB010008BB010008BB0100089F
:10015000AD020008BB010008E1020008BB01000875
:10016000BB010008BB010008BB010008BB0100087F
:10017000BB010008BB010008BB010008BB0100086F
:10018000BB010008BB010008DFF810D000F05AF8EE
:1001900000480047ED0E0008AFF3008088040020FF
:1001A0000648804706480047FEE7FEE7FEE7FEE711
:1001B000FEE7FEE7FEE7FEE7FEE7FEE7BD08000814
:1001C000890100082DE9F05F0546002092469B4614
:1001D00088460646814640241BE02846414647465D
:1001E000224600F041F853465A46C01A914110D3B6
:1001F00011461846224600F016F82D1A67EB010842
:100200004F4622460120002100F00DF817EB0009AF
:100210004E41201EA4F10104DFDC484631462A4647
:100220004346BDE8F09F202A04DB203A00FA02F1A1
:10023000002070479140C2F1200320FA03F31943D4
:1002400090407047064C074D06E0E06840F001031F
:1002500094E8070098471034AC42F6D3FFF798FFB4
:10026000D40F0008F40F0008202A04DB203A21FAFA
:1002700002F00021704721FA02F3D040C2F12002BF
:10028000914008431946704700BFFEE706480068E2
:1002900000F0200038B104480830006840F0200029
:1002A00001490831086070470064024010B50948F0
:1002B000006800F4006060B106480830006840F44F
:1002C00000600449083108600348017803A000F089
:1002D00059FC10BD046402400000002025630000AA
:1002E0000A48006800F0006078B1084808300068EB
:1002F00040F000600549083108600448B4300068E7
:1003000020F001000149B4310860704704640240E4
:100310007047000010B50D48006840F001000B491F
:100320000860142000F0AEFD0948006900F00100EB
:1003300050B100BF0648006900F001000028F9D163
:100340004FF4806000F060F910BD0000143C0140E3
:100350000000024010B51948006840F00800174935
:10036000086017A000F00EFC142000F08BFD15486B
:10037000006900F00800F8B900BF1248006900F0F9
:1003800008000028F9D010480078002814DD0E4835
:1003900000780A380C4908700846007800F0C2FA64
:1003A0000A48C46B0848017809A000F0EBFB21461D
:1003B0000AA000F0E7FB00BF10BD0000143C0140A4
:1003C0002D2D0A00001002401800002000000140FE
:1003D00064757479203D2025640A0000737461748B
:1003E0007573203D2025640A0000000010B51948EF
:1003F000006840F010001749086017A000F0C2FB29
:10040000142000F03FFD1548006900F01000F8B915
:1004100000BF1248006900F010000028F9D0104811
:100420000078642814DA0E4800780A300C49087005
:100430000846007800F076FA0A48C46B084801784C
:1004400009A000F09FFB21460AA000F09BFB00BF23
:1004500010BD0000143C01402B2B0A00001002408C
:10046000180000200000014064757479203D2025AB
:10047000640A0000737461747573203D2025640A5A
:100480000000000070B505460C4600F047F920203A
:1004900000F058F9284600F055F9204600F052F9CE
:1004A000002000F04FF900F043F900F025F870BD8E
:1004B00010B500F0BDF810BD70B505460C4600F053
:1004C0002DF99F2000F03EF9FF2000F03BF9287045
:1004D00000202080FF2000F035F9218841EA00202B
:1004E0002080FF2000F02EF921880843208000F0B2
:1004F0001FF900F001F870BD10B500F00FF90520EC
:1005000000F020F900BFFF2000F01CF900F001000E
:100510000028F8D100F00CF910BD2DE9F047804615
:100520000D4616461C46DDF8209000F0F7F8FFF760
:10053000E3FF00F0F3F8032000F004F9404600F078
:1005400001F9284600F0FEF8304600F0FBF80027DD
:1005500006E0FF2000F0F6F82070641C781C87B2DB
:100560004F45F6DB00F0E4F8FFF7C6FFBDE8F08783
:100570002DE9F04780460D4616461C46DDF82090D2
:1005800000F0CCF800F022F800F0C8F8FFF7B4FF54
:1005900000F0C4F8022000F0D5F8404600F0D2F890
:1005A000284600F0CFF8304600F0CCF8002705E0F0
:1005B000207800F0C7F8641C781C87B24F45F7DB41
:1005C00000F0B6F8FFF798FFBDE8F08710B500F02F
:1005D000A5F8062000F0B6F800F0AAF8FFF78CFFA7
:1005E00010BD00BFFEE70000024909680143014A4F
:1005F0001160704714140240024909688143014A9E
:10060000116070471414024000B5034605480068A5
:10061000184018B91846FFF7E7FF02E01846FFF741
:10062000EBFF00BD1414024000BFFEE770477047A7
:1006300010B53548006840F002003349086033487F
:10064000006840F04000314908600846006820F02A
:10065000800008600846006820F480700860084642
:10066000006820F4007008600846006840F480606C
:1006700008600846006820F40060086008460068CA
:1006800040F0805008600846006820F00050086084
:10069000081D006820F00800091D08600846006871
:1006A00020F0100008600846006820F02000086074
:1006B0000846006820F480400860081D006814495E
:1006C0000843124908310860081D006811490843B1
:1006D0000E490C310860084600680F4908400B4974
:1006E0000C31086009481430006820F028000749E0
:1006F000143108600846006840F480400860052016
:1007000000F0CCFB10BD0000303802400004024075
:10071000C00F0030400500107FF5FFDF0348006880
:1007200020F4804001490860704700001404024032
:100730000348006840F480400149086070470000A9
:10074000140402402DE9F04106460025002436E05D
:1007500006FA04F000F0800737B11B48006840F04B
:1007600020001949086005E01748006820F02000C3
:1007700015490860052000F091FB1348006840F01F
:10078000080011490860081F006800F0100030B12F
:10079000C4F10701012088402843C5B204E0C4F138
:1007A0000701012088408543052000F077FB0648BB
:1007B000006820F0080004490860601CC4B2082CDE
:1007C000C6DB2846BDE8F0811404024070470000F3
:1007D0000CB50020019000903448006840F480304F
:1007E0003249086000BF3148006800F400300090D2
:1007F0000198401C0190009818B90198B0F5A04FDD
:10080000F1D12A48006800F4003010B101200090B6
:1008100001E0002000900098012846D12348403094
:10082000006840F08050214940310860204800684D
:1008300040F440401E4908601C48083000681B49CD
:10084000083108600846006840F400400860084627
:10085000006840F4A05008601648091F0860081F8F
:10086000006840F08070091F086000BF0F480068F2
:1008700000F000700028F9D040F205700E490860C1
:100880000A480830006820F0030008490831086071
:100890000846006840F00200086000BF03480830C6
:1008A000006800F00C000828F8D10CBD00380240A8
:1008B0000070004008544007003C024010B5154845
:1008C000006840F47000134908601348006840F065
:1008D00001001149086000200F49083108600E48E6
:1008E00000680E4908400C4908600D48091D086061
:1008F000081F006820F48020091F086000200649B6
:100900000C310860FFF764FF4FF000600149803947
:10091000086010BD88ED00E000380240FFFFF6FEE1
:10092000103000240149C8637047000000000140F6
:100930000848008A00F0010050B10648008A20F003
:100940000100044908820846008820F00100088060
:1009500070470000000001400548008A20F00100B7
:100960000349088203480068401C02490860704738
:10097000001000401C00002000B51148008800F065
:10098000200058B10E4880880E490F4A12788854CA
:100990000D480078401C0C49087010E00848008899
:1009A00000F0100058B106480088054880880648C5
:1009B0000178044800F0CAF800200349087000BD1F
:1009C00000100140240000201900002010B500EEA6
:1009D000900AF8EE600A9FED571AC1EE201AB0EEA9
:1009E000610AFCEEC00A10EE901A00EE901AF8EEC2
:1009F000600A30EE601AF3EE001AF6EE000A41EEDD
:100A0000210AFCEEE00A10EE902A4B4B1B6843F0E3
:100A10000103494C2360484B14331B6843F0100317
:100A2000454C14342360454B5B6A43F07004434BE0
:100A30005C625B6A43F4E064404B5C621B6843F4B5
:100A400000233E4C236023461B6823F4802323604D
:100A500023465B6823F40073636023469B6843F47A
:100A60004023A3602346DB6843F48023E3602346EE
:100A7000DB6823F40023E36023461B6843F4001380
:100A8000236023461B6823F48013236023465B689E
:100A900023F48063636023469B6843F44013A360A0
:100AA0002346DB6843F48013E3602346DB6823F4CA
:100AB0000013E36042EA0113214C238123469B8902
:100AC00043F00C03A38123469B8943F03003A381A9
:100AD00023469B8923F48053A38123469B8923F4D7
:100AE0008063A38123461B8A23F440532382234639
:100AF0009B8943F40053A3810F4B14331B6843F4C9
:100B000080430D4C1434236023461B6843F4004398
:100B100023600C4B1B6823F4E0630A4C23602346DC
:100B20001B6843F440732360074B1B78064C23700B
:100B300010BD0000A037A04A30380240000002403B
:100B4000001001400CED00E025E400E010B5034684
:100B50000C46002204E0985C00F006F8501CC2B27B
:100B6000A242F8DB10BD000000BF0449098801F073
:100B700080010029F9D001498880704700100140A8
:100B800000BFFEE70FB4054B10B503A9044A029855
:100B900000F018F810BC5DF814FB0000DD0E000832
:100BA0002000002002E008C8121F08C1002AFAD164
:100BB00070477047002001E001C1121F002AFBD1DD
:100BC000704700002DE9FF4F8DB09B460F4604464D
:100BD000002606E025280BD05A460F999047641C42
:100BE000761C20780028F5D111B03046BDE8F08F92
:100BF0000025A8460122984900E0054314F8013F6A
:100C0000203B02FA03F00842F7D120782E2817D1B2
:100C100014F8010F45F004052A280ED06FF02F02BA
:100C20002078A0F1300109290AD808EB880102EBED
:100C3000410100EB0108641CF2E757F8048B641CC7
:100C400020786C280DD004DC4C2812D06A2811D1F1
:100C500004E074280DD07A280CD10AE045F4001580
:100C600007E0617845F48015814202D1641C05F5E6
:100C70008015641C2078692844D008DC0028B3D093
:100C8000582867D063280FD0642808D13AE070282C
:100C900065D0732812D075285AD078285AD05A4671
:100CA0000F999047761CD5E017F8040B8DF80000DB
:100CB00000208DF80100E946012003E057F8049B6D
:100CC0004FF0FF3069074FF0000501D40AE06D1CBA
:100CD00045450DDA8542FADB19F805100029F6D1F1
:100CE00006E06D1C8542FCDB19F805100029F8D1DF
:100CF0002E4404E019F8010B5A460F9990476D1ED7
:100D0000F8D2A7E00A200021CDE90801C5F302507E
:100D100002280CD001CFC117021E71F100020CDABB
:100D20000023D0EB030063EB01012D2208E0FF1D3F
:100D300027F00707F7E80201EEE72A0504D52B2282
:100D40008DF8282001223CE0EA073AD02022F7E77C
:100D50000A2000E010200021CDE9080107E0102062
:100D6000002145F00405CDE908014FF00808C5F35E
:100D70000250022810D001CF00214FF0000A2A07AC
:100D800020D52278702A0DD0DDE908C38CF0100C34
:100D90005CEA030C0CD015E0FF1D27F00707F7E80D
:100DA0000201EAE740228DF828204FF0010A0CE00A
:100DB00050EA010306D030238DF828308DF8292021
:100DC000022292462278582A04D024A20DF120094A
:100DD0000B9209E026A2F9E7DDE90823FFF7F2F913
:100DE0000B9B9B5C09F8013D50EA0102F4D1ADEB8D
:100DF000090020300890680701D44FF001080899D5
:100E0000884503DD0898A8EB000000E0002080463C
:100E1000002506E00AA85A46405D0F9990476D1CD0
:100E2000761C5545F6DB04E030205A460F99904772
:100E3000761CB8F10001A8F10108F5DC05E019F80D
:100E4000010B5A460F999047761C0899481E089046
:100E50000029F4DC641CC4E6092801003031323377
:100E600034353637383961626364656600000000E6
:100E700030313233343536373839414243444546D0
:100E80000000000000B5034603E04FF47A7000F064
:100E900005F8181EA3F10103F7D100BDA8214143B5
:100EA0004FF0E02251611146096941F005011161DD
:100EB0001146096921F00201116100BF4FF0E021E4
:100EC000096901F480310029F8D04FF0E021096967
:100ED00021F001014FF0E0221161704700B5024698
:100EE0000B46D0B2FFF740FE104600BD00B585B0FE
:100EF0004FF4E130FFF76AFDFFF7DAFA1D491E48AB
:100F0000FFF7DAFA1B4802881B4801781BA0FFF79D
:100F100039FEFFF75BFBFF210846FFF7B3FA1E48D7
:100F200000881E4B0022FF2100900846FFF720FB9F
:100F30001B4800881B4B0022FF2100900846FFF74A
:100F4000ECFA1848C07917498979164A5279154B35
:100F50001B79CDE90132CDE903101248C078009029
:100F600010488378427801780FA0FFF70BFE00202D
:100F700005B000BD0200002001000020E588B6E9B0
:100F800080A0E595863D2523782C20E88AAFE78967
:100F9000873D2523780A00000C0000200400002073
:100FA000160000200E000020627566666572203D06
:100FB0002025632C2025632C2025632C2025632CE1
:100FC0002025632C2025632C2025632C2025630AF3
:100FD00000000000F40F00080000002024000000C2
:100FE000A40B00081810000824000020640400006E
:100FF000B40B0008000000007A79713132333435C7
:10100000080000000000000000000800320000009E
:081010000000000000000000D8
:040000050800018965
:00000001FF
