:020000040800F2
:1000000078040020A1010008A50200085D02000894
:10001000A102000815020008D10700080000000036
:10002000000000000000000000000000A90200081D
:100030001902000800000000A70200089903000848
:10004000BB010008BB010008BB010008BB010008A0
:10005000BB010008BB0100081D020008BB0100082D
:10006000BB010008BB010008BB010008BB01000880
:10007000BB010008BB010008BB010008BB01000870
:10008000BB010008BB010008BB010008BB01000860
:10009000BB010008BB010008BB010008BB01000850
:1000A000BB010008BB010008BB010008BB01000840
:1000B000BB010008BB010008BB010008BB01000830
:1000C000BB010008BB010008BB010008BB01000820
:1000D000BB010008C1050008BB010008BB01000806
:1000E000BB010008BB010008BB010008BB01000800
:1000F000BB010008BB010008BB010008BB010008F0
:10010000BB010008BB010008BB010008BB010008DF
:10011000BB010008BB010008ED040008BB0100089A
:10012000BB010008BB010008BB010008BB010008BF
:10013000BB010008BB010008BB010008BB010008AF
:10014000BB010008BB010008BB010008BB0100089F
:10015000BB010008BB010008BB010008BB0100088F
:10016000BB010008BB010008BB010008BB0100087F
:10017000BB010008BB010008BB010008BB0100086F
:10018000BB010008BB010008DFF810D000F030F818
:1001900000480047D1090008AFF300807804002030
:1001A0000648804706480047FEE7FEE7FEE7FEE711
:1001B000FEE7FEE7FEE7FEE7FEE7FEE7A90300082D
:1001C0008901000830B50B46014600202022012499
:1001D00009E021FA02F59D4205D303FA02F5491B15
:1001E00004FA02F52844151EA2F10102F1DC30BD2B
:1001F000064C074D06E0E06840F0010394E8070074
:1002000098471034AC42F6D3FFF7C2FF0C0A00083F
:100210002C0A000800BFFEE77047000010B50D482B
:10022000006840F001000B490860142000F09CFBBE
:100230000948006900F0010050B100BF064800699C
:1002400000F001000028F9D14FF4806000F018F8A8
:1002500010BD0000143C01400000024000BFFEE75A
:10026000024909680143014A1160704714140240B1
:10027000024909688143014A116070471414024021
:1002800000B5034605480068184018B91846FFF73E
:10029000E7FF02E01846FFF7EBFF00BD1414024031
:1002A00000BFFEE770477047704700000CB50020A4
:1002B000019000903448006840F480303249086072
:1002C00000BF3148006800F4003000900198401CE5
:1002D0000190009818B90198B0F5A04FF1D12A48C3
:1002E000006800F4003010B10120009001E000200F
:1002F00000900098012846D123484030006840F023
:1003000080502149403108602048006840F4404056
:100310001E4908601C48083000681B490831086005
:100320000846006840F4004008600846006840F451
:10033000A05008601648091F0860081F006840F0B8
:100340008070091F086000BF0F48006800F000704F
:100350000028F9D040F205700E4908600A480830BC
:10036000006820F00300084908310860084600686A
:1003700040F00200086000BF03480830006800F049
:100380000C000828F8D10CBD003802400070004075
:1003900008544007003C024002480068401C0149E4
:1003A000086070470400002010B51548006840F44C
:1003B0007000134908601348006840F001001149BB
:1003C000086000200F49083108600E4800680E4997
:1003D00008400C4908600D48091D0860081F0068A6
:1003E00020F48020091F0860002006490C310860B5
:1003F000FFF75CFF4FF0006001498039086010BDD5
:1004000088ED00E000380240FFFFF6FE10300024C7
:100410003048006840F020002E4908602D48103018
:10042000006840F480702B49103108602A48406A07
:1004300040F0900128484162006840F400202649BD
:1004400008600846006820F480200860081D0068E5
:1004500020F40070091D08601F480C30006840F44B
:1004600080201D490C3108600846006820F40020F7
:100470000860081F006840F44020091F08605320EE
:10048000164908856320C862322048630846008BFD
:1004900020F0030008830846008B40F040000883EA
:1004A0000846008B40F0200008830846008B20F0AF
:1004B000100008830846008C40F0020008840846BB
:1004C000008C40F0010008840846008840F00100DC
:1004D000088070473038024000140240002000407D
:1004E00001494863704700000020004010B50848EB
:1004F000008A20F00100064908820648016806A02B
:1005000000F068F903480068401C0249086010BD0B
:100510000010004008000020436F756E74203D20DD
:10052000256400001A48006840F4804018490860BB
:10053000081F006840F01000091F0860532015498B
:10054000088540F2E730C8620846808940F0010023
:1005500088811148006820F4E0600F49086008466F
:10056000006840F4407008600C48007840F0F001EA
:100570000A4801704FF48000094908600548008866
:1005800040F00100034908800020064908607047D8
:1005900044380240001000400CED00E036E400E07A
:1005A00004E100E0080000200021044A116000BFBF
:1005B000024909688142FBD370470000080000200F
:1005C00000B51148008800F0200058B10E4880881E
:1005D0000E490F4A127888540D480078401C0C4987
:1005E000087010E00848008800F0100058B1064874
:1005F00000880548808806480178044800F0CEF855
:1006000000200349087000BD0010014010000020C8
:100610000000002010B500EE900AF8EE600A9FED91
:10062000581AC1EE201AB0EE610AFCEEC00A10EEB4
:10063000901A00EE901AF8EE600A30EE601AF3EEAF
:10064000001AF6EE000A41EE210AFCEEE00A10EE76
:10065000902A4C4B1B6843F001034A4C2360494BE2
:1006600014331B6843F01003464C14342360464B8C
:100670005B6A43F07004444B5C625B6A43F4E06481
:10068000414B5C621B6843F400233F4C23602346CC
:100690001B6823F48023236023465B6823F40073E4
:1006A000636023469B6843F44023A3602346DB68D2
:1006B00043F48023E3602346DB6823F40023E360F4
:1006C00023461B6843F40013236023461B6823F46E
:1006D0008013236023465B6823F4806363602346B2
:1006E0009B6843F44013A3602346DB6843F4801304
:1006F000E3602346DB6823F40013E36042EA01135E
:10070000224C238123469B8943F00C03A38123467B
:100710009B8943F03003A38123469B8923F48053B4
:10072000A38123469B8923F48063A38123461B8AEC
:1007300023F44053238223469B8943F40053A3812F
:10074000104B14331B6843F480430E4C1434236065
:1007500023461B6843F4004323600D4B1B6823F4BE
:10076000E0630B4C236023461B6843F44073236013
:10077000084B1B78074C23702023074C236010BDC7
:10078000A037A04A3038024000000240001001406B
:100790000CED00E025E400E004E100E010B50346C4
:1007A0000C46002204E0985C00F006F8501CC2B22F
:1007B000A242F8DB10BD000000BF0449098801F027
:1007C00080010029F9D0014988807047001001405C
:1007D00000BFFEE70FB4054B10B503A9044A029809
:1007E00000F018F810BC5DF814FB0000C109000807
:1007F0000C00002002E008C8121F08C1002AFAD12C
:1008000070477047002001E001C1121F002AFBD190
:10081000704700002DE9FF4F89B09B460446002534
:1008200006E025280BD05A460B999047641C6D1C96
:1008300020780028F5D10DB02846BDE8F08F0027BC
:10084000B8460122474900E0074314F8013F203B26
:1008500002FA03F00842F7D120782E2819D114F8B3
:10086000010F47F004072A280ED06FF02F022078DE
:10087000A0F1300109290CD808EB880102EB4101F5
:1008800000EB0108641CF2E70A98641C50F8048B22
:100890000A9020780028CED0642808D0692806D095
:1008A00075281ED05A460B9990476D1C58E00A993E
:1008B0004FF00A0901C90A91002802DA40422D21AD
:1008C00002E0390504D52B218DF82010012103E029
:1008D000F90704D02021F7E78A4608AE0DE0002191
:1008E000FAE70A994FF00A0901C90A91F7E7494660
:1008F000FFF768FC303106F8011D0028F7D1ADEB99
:10090000060000F12009780701D44FF00108C8451E
:1009100002DDA8EB090000E000208046002706E089
:1009200008A85A46C05D0B9990476D1C7F1C57451F
:10093000F6DB04E030205A460B9990476D1CB8F165
:100940000001A8F10108F5DC05E016F8010B5A4694
:100950000B9990476D1CB9F10001A9F10109F4DC74
:10096000641C65E70928010000B5034603E04FF465
:100970007A7000F005F8181EA3F10103F7D100BD4D
:10098000A82141434FF0E02251611146096941F02D
:10099000050111611146096921F00201116100BFD1
:1009A0004FF0E021096901F480310029F8D04FF0BF
:1009B000E021096921F001014FF0E0221161704747
:1009C00000B502460B46D0B2FFF7F6FE104600BD5A
:1009D0004FF4E130FFF71EFEFFF7A4FDFFF718FD0F
:1009E0000024002511E02DB9601CC4B2632C06DB85
:1009F000012504E0601EC4B2012C00DC0025204665
:100A0000FFF76EFD1420FFF7CFFDECE72C0A00087E
:100A10000000002010000000F40700083C0A000855
:100A20001000002068040000040800080000000016
:0C0A3000000000000000000000000000BA
:040000050800018965
:00000001FF
