:020000040800F2
:1000000078040020A1010008510500080905000836
:100010004D050008890200082909000800000000B9
:10002000000000000000000000000000550500086E
:10003000950300080000000053050008B9010008FE
:10004000BB010008BB010008BB010008BB010008A0
:10005000BB010008BB01000899030008BB010008B0
:10006000BB010008D903000871040008BB010008A7
:10007000BB010008BB010008BB010008BB01000870
:10008000BB010008BB010008BB010008BB01000860
:10009000BB010008BB010008BB010008BB01000850
:1000A000BB010008B9060008BB010008BB0100083D
:1000B000BB010008BB010008BB010008BB01000830
:1000C000BB010008BB010008BB010008BB01000820
:1000D000BB01000819070008BB010008BB010008AC
:1000E000BB010008BB010008BB010008BB01000800
:1000F000BB010008BB010008BB010008BB010008F0
:10010000BB010008BB010008BB010008BB010008DF
:10011000BB010008BB010008E1060008BB010008A4
:100120008D020008BB010008BB010008BB010008EC
:10013000BB010008BB010008BB010008BB010008AF
:10014000BB010008BB010008BB010008BB0100089F
:10015000BB010008BB010008BB010008BB0100088F
:10016000BB010008BB010008BB010008BB0100087F
:10017000BB010008BB010008BB010008BB0100086F
:10018000BB010008BB010008DFF810D000F05AF8EE
:1001900000480047950C0008AFF300807804002069
:1001A0000648804706480047FEE7FEE7FEE7FEE711
:1001B000FEE7FEE7FEE7FEE7FEE7FEE7450600088E
:1001C000890100082DE9F05F0546002092469B4614
:1001D00088460646814640241BE02846414647465D
:1001E000224600F041F853465A46C01A914110D3B6
:1001F00011461846224600F016F82D1A67EB010842
:100200004F4622460120002100F00DF817EB0009AF
:100210004E41201EA4F10104DFDC484631462A4647
:100220004346BDE8F09F202A04DB203A00FA02F1A1
:10023000002070479140C2F1200320FA03F31943D4
:1002400090407047064C074D06E0E06840F001031F
:1002500094E8070098471034AC42F6D3FFF798FFB4
:10026000200D0008400D0008202A04DB203A21FA66
:1002700002F00021704721FA02F3D040C2F12002BF
:10028000914008431946704700BFFEE70C480068DC
:1002900000F0200090B10A480830006840F02000CB
:1002A00007490831086001200649087004481030E9
:1002B000006820F00100024910310860704700001A
:1002C00000640240040000202448006840F48000DC
:1002D000224908602248006840F010002049086068
:1002E0000846006840F0800008600846006820F07A
:1002F000400008600846006840F400700860084646
:10030000006840F4806008600846006820F4C0502F
:1003100008600846006820F4C0400860084600688D
:1003200040F4403008600846006820F060600860D3
:100330000C48006820F4E0600A490860084600683C
:1003400040F4407008600848007840F0F00106482A
:1003500001704FF0807005490860704730380240E6
:10036000106402400CED00E038E400E004E100E03D
:1003700010B5074B18601B1D1960054B1B1F1A6039
:100380001B1F1B6843F00103014C083C236010BD98
:10039000186402407047000010B50D48006840F036
:1003A00001000B490860142000F040FC0948006976
:1003B00000F0010050B100BF0648006900F00100E4
:1003C0000028F9D14FF4806000F0B0F810BD0000B3
:1003D000143C01400000024010B51948006840F08C
:1003E00008001749086017A000F0A0FA142000F0D8
:1003F0001DFC1548006900F00800F8B900BF12485C
:10040000006900F008000028F9D0104800780028A2
:1004100014DD0E4800780A380C4908700846007848
:1004200000F044F90A48C46B0848017809A000F0BC
:100430007DFA21460AA000F079FA00BF10BD000045
:10044000143C01402D2D0A00001002400500002040
:100450000000014064757479203D2025640A000085
:10046000737461747573203D2025640A00000000D8
:1004700010B51948006840F010001749086017A02F
:1004800000F054FA142000F0D1FB1548006900F088
:100490001000F8B900BF1248006900F010000028F1
:1004A000F9D010480078642814DA0E4800780A3031
:1004B0000C4908700846007800F0F8F80A48C46B48
:1004C0000848017809A000F031FA21460AA000F09E
:1004D0002DFA00BF10BD0000143C01402B2B0A0078
:1004E000001002400500002000000140647574798E
:1004F000203D2025640A0000737461747573203DEB
:100500002025640A0000000000BFFEE702490968D8
:100510000143014A116070471414024002490968FE
:100520008143014A116070471414024000B503462C
:1005300005480068184018B91846FFF7E7FF02E0C1
:100540001846FFF7EBFF00BD1414024000BFFEE7A2
:1005500070477047704700000CB500200190009074
:100560003448006840F480303249086000BF3148A8
:10057000006800F4003000900198401C0190009841
:1005800018B90198B0F5A04FF1D12A48006800F4DD
:10059000003010B10120009001E000200090009890
:1005A000012846D123484030006840F0805021495E
:1005B000403108602048006840F440401E4908600F
:1005C0001C48083000681B4908310860084600686C
:1005D00040F4004008600846006840F4A0500860FD
:1005E0001648091F0860081F006840F08070091F46
:1005F000086000BF0F48006800F000700028F9D0C4
:1006000040F205700E4908600A480830006820F082
:1006100003000849083108600846006840F00200FD
:10062000086000BF03480830006800F00C0008288C
:10063000F8D10CBD0038024000700040085440075B
:10064000003C024010B51548006840F470001349A2
:1006500008601348006840F001001149086000205C
:100660000F49083108600E4800680E4908400C49DF
:1006700008600D48091D0860081F006820F48020EC
:10068000091F0860002006490C310860FFF764FF6D
:100690004FF0006001498039086010BD88ED00E02E
:1006A00000380240FFFFF6FE103000240149C86305
:1006B00070470000000001400848008A00F0010077
:1006C00050B10648008A20F001000449088208461B
:1006D000008820F001000880704700000000014001
:1006E00010B50848008A20F0010006490882064833
:1006F000016806A000F01AF903480068401C02498E
:10070000086010BD0010004008000020436F756EA7
:1007100074203D202564000000B51148008800F0D9
:10072000200058B10E4880880E490F4A127888542C
:100730000D480078401C0C49087010E008480088FB
:1007400000F0100058B10648008805488088064827
:100750000178044800F0CEF800200349087000BD7D
:1007600000100140100000200600002010B500EE2F
:10077000900AF8EE600A9FED581AC1EE201AB0EE0A
:10078000610AFCEEC00A10EE901A00EE901AF8EE24
:10079000600A30EE601AF3EE001AF6EE000A41EE3F
:1007A000210AFCEEE00A10EE902A4C4B1B6843F045
:1007B00001034A4C2360494B14331B6843F0100378
:1007C000464C14342360464B5B6A43F07004444B40
:1007D0005C625B6A43F4E064414B5C621B6843F417
:1007E00000233F4C236023461B6823F480232360AF
:1007F00023465B6823F40073636023469B6843F4DD
:100800004023A3602346DB6843F48023E360234650
:10081000DB6823F40023E36023461B6843F40013E2
:10082000236023461B6823F48013236023465B6800
:1008300023F48063636023469B6843F44013A36002
:100840002346DB6843F48013E3602346DB6823F42C
:100850000013E36042EA0113224C238123469B8963
:1008600043F00C03A38123469B8943F03003A3810B
:1008700023469B8923F48053A38123469B8923F439
:100880008063A38123461B8A23F44053238223469B
:100890009B8943F40053A381104B14331B6843F42A
:1008A00080430E4C1434236023461B6843F40043FA
:1008B00023600D4B1B6823F4E0630B4C236023463D
:1008C0001B6843F440732360084B1B78074C23706C
:1008D0002023074C236010BDA037A04A30380240C7
:1008E00000000240001001400CED00E025E400E0B3
:1008F00004E100E010B503460C46002204E0985CD9
:1009000000F006F8501CC2B2A242F8DB10BD000095
:1009100000BF0449098801F080010029F9D001498C
:10092000888070470010014000BFFEE70FB4054B00
:1009300010B503A9044A029800F018F810BC5DF83D
:1009400014FB0000850C00080C00002002E008C821
:10095000121F08C1002AFAD170477047002001E039
:1009600001C1121F002AFBD1704700002DE9FF4F83
:100970008DB09B460F460446002606E025280BD086
:100980005A460F999047641C761C20780028F5D1B0
:1009900011B03046BDE8F08F0025A84601229849E5
:1009A00000E0054314F8013F203B02FA03F008423F
:1009B000F7D120782E2817D114F8010F45F004053F
:1009C0002A280ED06FF02F022078A0F130010929DB
:1009D0000AD808EB880102EB410100EB0108641C16
:1009E000F2E757F8048B641C20786C280DD004DCE7
:1009F0004C2812D06A2811D104E074280DD07A282E
:100A00000CD10AE045F4001507E0617845F4801543
:100A1000814202D1641C05F58015641C2078692888
:100A200044D008DC0028B3D0582867D063280FD002
:100A3000642808D13AE0702865D0732812D0752850
:100A40005AD078285AD05A460F999047761CD5E04C
:100A500017F8040B8DF8000000208DF80100E9461E
:100A6000012003E057F8049B4FF0FF3069074FF077
:100A7000000501D40AE06D1C45450DDA8542FADB1C
:100A800019F805100029F6D106E06D1C8542FCDB43
:100A900019F805100029F8D12E4404E019F8010BCB
:100AA0005A460F9990476D1EF8D2A7E00A20002100
:100AB000CDE90801C5F3025002280CD001CFC117BF
:100AC000021E71F100020CDA0023D0EB030063EB8D
:100AD00001012D2208E0FF1D27F00707F7E80201BA
:100AE000EEE72A0504D52B228DF8282001223CE0D0
:100AF000EA073AD02022F7E70A2000E01020002180
:100B0000CDE9080107E01020002145F00405CDE9FA
:100B100008014FF00808C5F30250022810D001CF99
:100B200000214FF0000A2A0720D52278702A0DD024
:100B3000DDE908C38CF0100C5CEA030C0CD015E066
:100B4000FF1D27F00707F7E80201EAE740228DF8CA
:100B500028204FF0010A0CE050EA010306D03023B0
:100B60008DF828308DF82920022292462278582AC2
:100B700004D024A20DF120090B9209E026A2F9E786
:100B8000DDE90823FFF71EFB0B9B9B5C09F8013D89
:100B900050EA0102F4D1ADEB09002030089068075B
:100BA00001D44FF001080899884503DD0898A8EBA7
:100BB000000000E000208046002506E00AA85A4612
:100BC000405D0F9990476D1C761C5545F6DB04E09F
:100BD00030205A460F999047761CB8F10001A8F1D1
:100BE0000108F5DC05E019F8010B5A460F9990470A
:100BF000761C0899481E08900029F4DC641CC4E6A1
:100C000009280100303132333435363738396162E2
:100C100063646566000000003031323334353637A6
:100C200038394142434445460000000000B50346C0
:100C300003E04FF47A7000F005F8181EA3F10103E9
:100C4000F7D100BDA82141434FF0E0225161114688
:100C5000096941F0050111611146096921F002019C
:100C6000116100BF4FF0E021096901F480310029D2
:100C7000F8D04FF0E021096921F001014FF0E022A6
:100C80001161704700B502460B46D0B2FFF740FE37
:100C9000104600BD4FF4E130FFF768FD144A1549D6
:100CA00015A0FFF743FE124A124917A0FFF73EFEB8
:100CB0000F4A104914A0FFF739FEFFF705FB042285
:100CC0000B490C48FFF754FB10E01348007868B15B
:100CD000002406E00648015D0DA0FFF727FE601C1A
:100CE000C4B2042CF6DB00200B490870EDE70000CD
:100CF000000000201C0D000870203D2025702C20D5
:100D000072203D2025700A0070203D2025642C2093
:100D100072203D2025640A00040000200A141E28C9
:100D2000400D000800000020100000004C090008E1
:100D3000500D000810000020680400005C09000845
:100D40000000000000320000000000000000000071
:040000050800018965
:00000001FF
