:020000040800F2
:1000000070040020A10100087902000831020008F4
:1000100075020008E9010008ED0500080000000075
:100020000000000000000000000000007D02000849
:10003000ED010008000000007B0200086D030008CD
:10004000BB010008BB010008BB010008BB010008A0
:10005000BB010008BB010008F1010008BB0100085A
:10006000BB010008BB010008BB010008BB01000880
:10007000BB010008BB010008BB010008BB01000870
:10008000BB010008BB010008BB010008BB01000860
:10009000BB010008BB010008BB010008BB01000850
:1000A000BB010008BB010008BB010008BB01000840
:1000B000BB010008BB010008BB010008BB01000830
:1000C000BB010008BB010008BB010008BB01000820
:1000D000BB010008D9030008BB010008BB010008F0
:1000E000BB010008BB010008BB010008BB01000800
:1000F000BB010008BB010008BB010008BB010008F0
:10010000BB010008BB010008BB010008BB010008DF
:10011000BB010008BB010008BB010008BB010008CF
:10012000BB010008BB010008BB010008BB010008BF
:10013000BB010008BB010008BB010008BB010008AF
:10014000BB010008BB010008BB010008BB0100089F
:10015000BB010008BB010008BB010008BB0100088F
:10016000BB010008BB010008BB010008BB0100087F
:10017000BB010008BB010008BB010008BB0100086F
:10018000BB010008BB010008DFF810D000F01AF82E
:1001900000480047A9060008AFF300807004002063
:1001A0000648804706480047FEE7FEE7FEE7FEE711
:1001B000FEE7FEE7FEE7FEE7FEE7FEE77103000865
:1001C00089010008064C074D06E0E06840F0010395
:1001D00094E8070098471034AC42F6D3FFF7D8FFF5
:1001E000CC060008EC06000800BFFEE770470000E0
:1001F00010B50D48006840F001000B49086014205C
:1002000000F01EFA0948006900F0010050B100BF7B
:100210000648006900F001000028F9D14FF4806021
:1002200000F018F810BD0000143C0140000002402E
:1002300000BFFEE7024909680143014A11607047A7
:1002400014140240024909688143014A1160704751
:100250001414024000B5034605480068184018B958
:100260001846FFF7E7FF02E01846FFF7EBFF00BD77
:100270001414024000BFFEE770477047704700004B
:100280000CB50020019000903448006840F48030A4
:100290003249086000BF3148006800F40030009027
:1002A0000198401C0190009818B90198B0F5A04F32
:1002B000F1D12A48006800F4003010B1012000900C
:1002C00001E0002000900098012846D123484030EA
:1002D000006840F0805021494031086020480068A3
:1002E00040F440401E4908601C48083000681B4923
:1002F000083108600846006840F40040086008467D
:10030000006840F4A05008601648091F0860081FE4
:10031000006840F08070091F086000BF0F48006847
:1003200000F000700028F9D040F205700E49086016
:100330000A480830006820F00300084908310860C6
:100340000846006840F00200086000BF034808301B
:10035000006800F00C000828F8D10CBD00380240FD
:100360000070004008544007003C02407047000005
:1003700010B51548006840F4700013490860134830
:10038000006840F001001149086000200F49083161
:1003900008600E4800680E4908400C4908600D4886
:1003A000091D0860081F006820F48020091F0860EC
:1003B000002006490C310860FFF762FF4FF0006033
:1003C00001498039086010BD88ED00E00038024026
:1003D000FFFFF6FE1030002400B51148008800F041
:1003E000200058B10E4880880E490F4A1278885470
:1003F0000D480078401C0C49087010E0084800883F
:1004000000F0100058B1064800880548808806486A
:100410000178044800F0D0F800200349087000BDBE
:1004200000100140080000200000002010B500EE80
:10043000900AF8EE600A9FED591AC1EE201AB0EE4C
:10044000610AFCEEC00A10EE901A00EE901AF8EE67
:10045000600A30EE601AF3EE001AF6EE000A41EE82
:10046000210AFCEEE00A10EE902A4D4B1B6843F087
:1004700001034B4C23604A4B14331B6843F01003B9
:10048000474C14342360474B5B6A43F07004454B80
:100490005C625B6A43F4E064424B5C621B6843F459
:1004A0000023404C236023461B6823F480232360F1
:1004B00023465B6823F40073636023469B6843F420
:1004C0004023A3602346DB6843F48023E360234694
:1004D000DB6823F40023E36023461B6843F4001326
:1004E000236023461B6823F48013236023465B6844
:1004F00023F48063636023469B6843F44013A36046
:100500002346DB6843F48013E3602346DB6823F46F
:100510000013E36042EA0113234C238123469B89A5
:1005200043F00C03A38123469B8943F03003A3814E
:1005300023469B8923F48053A38123469B8923F47C
:100540008063A38123461B8A23F4405323822346DE
:100550009B8943F40053A381114B14331B6843F46C
:1005600080430F4C1434236023461B6843F400433C
:1005700023600E4B1B6823F4E0630C4C236023467E
:100580001B6843F440732360094B1B7843F0F0046D
:10059000074B1C702023074C236010BDA037A04AD6
:1005A0003038024000000240001001400CED00E035
:1005B00025E400E004E100E010B503460C4600220B
:1005C00004E0985C00F006F8501CC2B2A242F8DBCE
:1005D00010BD000000BF0449098801F08001002916
:1005E000F9D00149888070470010014000BFFEE744
:1005F000014A024900F013B89906000804000020DF
:1006000002E008C8121F08C1002AFAD170477047DB
:10061000002001E001C1121F002AFBD170472DE923
:10062000F04116460F460446002503E03946B04720
:10063000641C6D1C20780028F8D12846BDE8F081A4
:1006400000B5034603E04FF47A7000F005F8181E79
:10065000A3F10103F7D100BDA82141434FF0E022EF
:1006600051611146096941F005011161114609699D
:1006700021F00201116100BF4FF0E021096901F48E
:1006800080310029F8D04FF0E021096921F0010103
:100690004FF0E0221161704700B502460B46D0B220
:1006A000FFF798FF104600BD4FF4E130FFF7BEFEA4
:1006B00002A0FFF79DFF00BFFEE7000068656C6CBD
:1006C0006F2C20776F726C64210A0000EC06000822
:1006D000000000200800000000060008F4060008E2
:1006E0000800002068040000100600080000000058
:0406F0000000000006
:040000050800018965
:00000001FF
