:020000040800F2
:1000000070040020A10100089905000861030008A0
:10001000950500080D0200080D0900080000000009
:100020000000000000000000000000009D05000826
:1000300011020008000000009B0500088D06000862
:10004000BB010008BB010008BB010008BB010008A0
:10005000BB010008BB01000821030008BB01000828
:10006000BB010008BB010008BB010008BB01000880
:10007000BB010008BB010008BB010008BB01000870
:10008000BB010008BB010008BB010008BB01000860
:10009000BB010008BB010008BB010008BB01000850
:1000A000BB010008BB010008BB010008BB01000840
:1000B000BB010008BB010008BB010008BB01000830
:1000C000BB010008BB010008BB010008BB01000820
:1000D000BB010008F9060008BB010008BB010008CD
:1000E000BB010008BB010008BB010008BB01000800
:1000F000BB010008BB010008BB010008BB010008F0
:10010000BB010008BB010008BB010008BB010008DF
:10011000BB010008BB010008BB010008BB010008CF
:10012000BB010008BB010008BB010008BB010008BF
:10013000BB010008BB010008BB010008BB010008AF
:10014000BB010008BB010008BB010008BB0100089F
:10015000BB010008BB010008BB010008BB0100088F
:10016000BB010008BB010008BB010008BB0100087F
:10017000BB010008BB010008BB010008BB0100086F
:10018000BB010008BB010008DFF810D000F02CF81C
:10019000004800478D0A0008AFF30080700400207B
:1001A0000648804706480047FEE7FEE7FEE7FEE711
:1001B000FEE7FEE7FEE7FEE7FEE7FEE79106000842
:1001C00089010008D2B201E000F8012B491EFBD2E0
:1001D00070470022F6E710B513460A460446194652
:1001E000FFF7F0FF204610BD064C074D06E0E06823
:1001F00040F0010394E8070098471034AC42F6D36E
:10020000FFF7C6FFA40B0008C40B000800BFFEE701
:10021000704710B500F0B0F810BD70B5044600F09E
:1002200075F9A8B9A02000F031F988B9204600F08E
:1002300049F968B900F06AF950B9A12000F026F92F
:1002400030B900F003F900F07BF900F009F9054638
:10025000284670BD2DE9F04107460E46154600249C
:1002600000F054F900BBA02000F010F9E0B93846C6
:1002700000F028F9C0B900F049F9A8B9A12000F0B0
:1002800005F988B900F06EF800BF0BE0681EA042C7
:1002900003DC00F0DBF800F053F900F0E1F8305532
:1002A000601CC4B2AC42F1DBBDE8F08170B505461C
:1002B0000C4600F02BF980B9A02000F0E7F860B9F7
:1002C000284600F0FFF840B9204600F0FBF820B9BE
:1002D00000F036F9052000F0A5FB70BD2DE9F041D6
:1002E00007460D461646002400F010F9A8B9A020D4
:1002F00000F0CCF888B9384600F0E4F868B900BFDF
:1003000004E0285D00F0DEF8601CC4B2B442F8DB03
:1003100000F016F9052000F085FBBDE8F081000033
:1003200010B50D48006840F001000B49086014202A
:1003300000F078FB0948006900F0010050B100BFEF
:100340000648006900F001000028F9D14FF48060F0
:1003500000F010F910BD0000143C01400000024004
:1003600000BFFEE70348008840F480600149088030
:1003700070470000005400403148006840F002001F
:100380002F4908602E481030006840F400102C49B6
:10039000103108602B48006840F42020294908608B
:1003A0000846006820F4A0200860081D006840F49A
:1003B0004070091D0860081D006840F44030091DA8
:1003C0000860081D006840F4A020091D0860084668
:1003D000006840F4202008601A48406A40F0040198
:1003E00018484162406A40F0400116484162164890
:1003F000008840F02A0014490880081F008800F097
:100400000200091F088010481830008820F40040BE
:100410000D49183108800846008840F0D200088055
:10042000081D008840F02B00091D08800648001FA9
:10043000008840F001000449091F0880704700004F
:100440003038024000040240045400400348008851
:1004500020F480600149088070470000005400408B
:100460004FF6FF7101E0481E81B20748008800F096
:10047000400008B90029F6D119B10348001F0088CF
:1004800000E00120C0B270471454004002464FF60D
:10049000FF710B48028001E0481E81B20848001D30
:1004A000008800F0020008B90029F5D1002902DD1A
:1004B00003480830008809B9012070470020FCE794
:1004C0001054004002464FF6FF7101E0481E81B211
:1004D0000D48008800F0800008B90029F6D10A48CC
:1004E000001F02804FF6FF7101E0481E81B20648EE
:1004F000008800F0040008B90029F6D109B90120EC
:1005000070470020FCE70000145400404FF6FF71D4
:100510000A48008840F48070084A108001E0481EB4
:1005200081B206481430008800F0010008B90029A3
:10053000F5D109B9012070470020FCE700540040C4
:100540000348008840F400700149088070470000AB
:1005500000540040024909680143014A1160704794
:1005600014140240024909688143014A116070472E
:100570001414024000B5034605480068184018B935
:100580001846FFF7E7FF02E01846FFF7EBFF00BD54
:100590001414024000BFFEE7704770477047000028
:1005A0000CB50020019000903448006840F4803081
:1005B0003249086000BF3148006800F40030009004
:1005C0000198401C0190009818B90198B0F5A04F0F
:1005D000F1D12A48006800F4003010B101200090E9
:1005E00001E0002000900098012846D123484030C7
:1005F000006840F080502149403108602048006880
:1006000040F440401E4908601C48083000681B49FF
:10061000083108600846006840F400400860084659
:10062000006840F4A05008601648091F0860081FC1
:10063000006840F08070091F086000BF0F48006824
:1006400000F000700028F9D040F205700E490860F3
:100650000A480830006820F00300084908310860A3
:100660000846006840F00200086000BF03480830F8
:10067000006800F00C000828F8D10CBD00380240DA
:100680000070004008544007003C024070470000E2
:1006900010B51548006840F470001349086013480D
:1006A000006840F001001149086000200F4908313E
:1006B00008600E4800680E4908400C4908600D4863
:1006C000091D0860081F006820F48020091F0860C9
:1006D000002006490C310860FFF762FF4FF0006010
:1006E00001498039086010BD88ED00E00038024003
:1006F000FFFFF6FE1030002400B51148008800F01E
:10070000200058B10E4880880E490F4A127888544C
:100710000D480078401C0C49087010E0084800881B
:1007200000F0100058B10648008805488088064847
:100730000178044800F0D0F800200349087000BD9B
:1007400000100140080000200000002010B500EE5D
:10075000900AF8EE600A9FED591AC1EE201AB0EE29
:10076000610AFCEEC00A10EE901A00EE901AF8EE44
:10077000600A30EE601AF3EE001AF6EE000A41EE5F
:10078000210AFCEEE00A10EE902A4D4B1B6843F064
:1007900001034B4C23604A4B14331B6843F0100396
:1007A000474C14342360474B5B6A43F07004454B5D
:1007B0005C625B6A43F4E064424B5C621B6843F436
:1007C0000023404C236023461B6823F480232360CE
:1007D00023465B6823F40073636023469B6843F4FD
:1007E0004023A3602346DB6843F48023E360234671
:1007F000DB6823F40023E36023461B6843F4001303
:10080000236023461B6823F48013236023465B6820
:1008100023F48063636023469B6843F44013A36022
:100820002346DB6843F48013E3602346DB6823F44C
:100830000013E36042EA0113234C238123469B8982
:1008400043F00C03A38123469B8943F03003A3812B
:1008500023469B8923F48053A38123469B8923F459
:100860008063A38123461B8A23F4405323822346BB
:100870009B8943F40053A381114B14331B6843F449
:1008800080430F4C1434236023461B6843F4004319
:1008900023600E4B1B6823F4E0630C4C236023465B
:1008A0001B6843F440732360094B1B7843F0F0044A
:1008B000074B1C702023074C236010BDA037A04AB3
:1008C0003038024000000240001001400CED00E012
:1008D00025E400E004E100E010B503460C460022E8
:1008E00004E0985C00F006F8501CC2B2A242F8DBAB
:1008F00010BD000000BF0449098801F080010029F3
:10090000F9D00149888070470010014000BFFEE720
:100910000FB4054B10B503A9044A029800F017F86C
:1009200010BC5DF814FB00007D0A000804000020E4
:1009300002E008C8121F08C1002AFAD170477047A8
:10094000002001E001C1121F002AFBD170472DE9F0
:10095000F84F9946924688460546002706E0252826
:100960000AD051464A4690476D1C7F1C28780028C3
:10097000F5D13846BDE8F88F002315F8011F184659
:100980002E2915D115F8011F04232A290DD06FF047
:100990002F022978A1F13004092C09D800EB80003E
:1009A00002EB400008446D1CF3E758F8040B6D1C83
:1009B0002A78002ADDD0632A07D0732A0FD0104688
:1009C00051464A4690477F1C2AE018F8042B8DF8C0
:1009D000002000218DF801106E46012103E058F837
:1009E000046B4FF0FF315A074FF0000401D409E0C7
:1009F000641C84420BDA8C42FADB325D002AF7D1A8
:100A000005E0641C8C42FCDB305D0028F9D12744F2
:100A100004E016F8010B51464A469047641EF8D28E
:100A20006D1CA3E700B5034603E04FF47A7000F0B5
:100A300005F8181EA3F10103F7D100BDA821414319
:100A40004FF0E02251611146096941F00501116141
:100A50001146096921F00201116100BF4FF0E02148
:100A6000096901F480310029F8D04FF0E0210969CB
:100A700021F001014FF0E0221161704700B50246FC
:100A80000B46D0B2FFF736FF104600BD2DE9F0410E
:100A90004FF4E130FFF75AFEFFF7BBFB27A0FFF74B
:100AA00037FF61210020FFF701FC62210120FFF7E1
:100AB000FDFB63210220FFF7F9FB0020FFF7ADFBF0
:100AC00004460120FFF7A9FB05460220FFF7A5FB1E
:100AD000064633462A4621461DA0FFF719FF062287
:100AE00021A10020FFF7FAFB062221490020FFF791
:100AF000B1FB1F491FA0FFF70BFF64211C48FFF744
:100B000068FB15221EA10020FFF7E8FB0021102042
:100B1000FFF7CCFB152216490020FFF79BFB1020A6
:100B2000FFF77BFB0746124912A0FFF7F1FE39469B
:100B300019A0FFF7EDFE0020BDE8F081E5BC80E5DF
:100B4000A78BE6B58BE8AF954932432E2E2E0A00CF
:100B500061203D202563092062203D202563092076
:100B600063203D2025630A003132333435360000DE
:100B700008000020737472203D2025730A000000D5
:100B80003132333435363738393061626364656603
:100B90006768696A6B00000074657374203D2025E6
:100BA000630A0000C40B00080000002008000000D9
:100BB00030090008CC0B0008080000206804000081
:0C0BC000400900080000000000000000D8
:040000050800018965
:00000001FF
