:020000040800F2
:10000000600600200D020008B9030008CD020008B8
:10001000B5030008C7020008190500080000000029
:10002000000000000000000000000000BD03000808
:10003000CB02000800000000BB030008AD0400086C
:1000400027020008270200082702000827020008EC
:1000500027020008270200082702000827020008DC
:1000600027020008270200082702000827020008CC
:1000700027020008270200082702000827020008BC
:1000800027020008270200082702000827020008AC
:10009000270200082702000827020008270200089C
:1000A000270200082702000827020008270200088C
:1000B000270200082702000827020008270200087C
:1000C000270200082702000827020008270200086C
:1000D000270200082702000827020008270200085C
:1000E000270200082702000827020008270200084C
:1000F000270200082702000827020008270200083C
:10010000270200082702000827020008270200082B
:10011000270200082702000827020008270200081B
:10012000270200082702000827020008270200080B
:1001300027020008270200082702000827020008FB
:1001400027020008270200082702000827020008EB
:1001500027020008270200082702000827020008DB
:1001600027020008270200082702000827020008CB
:1001700027020008270200082702000827020008BB
:10018000270200082702000800F002F800F02EF80D
:100190000AA090E8000C82448344AAF10107DA45E2
:1001A00001D100F023F8AFF2090EBAE80F0013F006
:1001B000010F18BFFB1A43F0010318473404000075
:1001C000440400000023002400250026103A28BF24
:1001D00078C1FBD8520728BF30C148BF0B607047B9
:1001E0001FB500F0FDF91FBD10B510BD00F031F8CE
:1001F0001146FFF7F5FF00F0C9F900F04FF803B41E
:10020000FFF7F2FF03BC00F057F8000009488047F1
:1002100009480047FEE7FEE7FEE7FEE7FEE7FEE7E8
:10022000FEE7FEE7FEE7FEE704480549054A064B00
:1002300070470000B1040008890100086000002038
:1002400060060020600200206002002070477047B6
:100250007047754600F02CF8AE46050069465346D7
:1002600020F00700854618B020B5FFF7DDFFBDE898
:1002700020404FF000064FF000074FF000084FF00D
:10028000000B21F00701AC46ACE8C009ACE8C0099E
:10029000ACE8C009ACE8C0098D46704710B504460B
:1002A000AFF300802046BDE81040FFF7A8BF000074
:1002B000004870470000002001491820ABBEFEE74F
:1002C00026000200704700BFFEE7704700BFFEE750
:1002D00000B51848006840F020001649086016482C
:1002E000006840F4A010144908600846006820F433
:1002F00020100860081D006820F4C060091D086017
:10030000081D006840F47010091D0860081D006891
:1003100020F42010091D08600846006840F4A01071
:100320000860081500F00AF84FF4007000F006F8B5
:1003300000BD000030380240001402400249096844
:100340000143014A116070471414024030B504465D
:100350000D46002305E034F81300FFF7EFFF581CAB
:10036000C3B2AB42F7DB30BD024909688143014AA1
:10037000116070471414024030B504460D46002346
:1003800005E034F81300FFF7EFFF581CC3B2AB428F
:10039000F7DB30BD00B5034605480068184018B9C2
:1003A0001846FFF7CBFF02E01846FFF7DDFF00BD60
:1003B0001414024000BFFEE770477047704700000A
:1003C0000CB50020019000903448006840F4803063
:1003D0003249086000BF3148006800F400300090E6
:1003E0000198401C0190009818B90198B0F5A04FF1
:1003F000F1D12A48006800F4003010B101200090CB
:1004000001E0002000900098012846D123484030A8
:10041000006840F080502149403108602048006861
:1004200040F440401E4908601C48083000681B49E1
:10043000083108600846006840F40040086008463B
:10044000006840F4A05008601648091F0860081FA3
:10045000006840F08070091F086000BF0F48006806
:1004600000F000700028F9D040F205700E490860D5
:100470000A480830006820F0030008490831086085
:100480000846006840F00200086000BF03480830DA
:10049000006800F00C000828F8D10CBD00380240BC
:1004A0000070004008544007003C024070470000C4
:1004B00010B51548006840F47000134908601348EF
:1004C000006840F001001149086000200F49083120
:1004D00008600E4800680E4908400C4908600D4845
:1004E000091D0860081F006820F48020091F0860AB
:1004F000002006490C310860FFF762FF4FF00060F2
:1005000001498039086010BD88ED00E000380240E4
:10051000FFFFF6FE1030002400BFFEE700B50346E3
:1005200003E04FF47A7000F011F8181EA3F10103F4
:10053000F7D100BD10B5044603E04FF47A70FFF721
:10054000EDFF201EA4F10104F7D110BDA821414305
:100550004FF0E02251611146096941F00501116136
:100560001146096921F00201116100BF4FF0E0213D
:10057000096901F480310029F8D04FF0E0210969C0
:1005800021F001014FF0E0221161704708B51348D6
:1005900000680090FFF79CFE1FE04FF48060FFF7BB
:1005A000F9FE0A20FFF7C6FF4FF48060FFF7F2FE66
:1005B0004FF40070FFF7EEFE0A20FFF7BBFF0221A9
:1005C0006846FFF7D9FE0A20FFF7B4FF022168460C
:1005D000FFF7BCFE0A20FFF7ADFFDEE7EC050008E1
:1005E0004FF04070E1EE100A704700000004000276
:1005F000000600080000002060060000C40100089A
:040000050800018965
:00000001FF
