:020000040800F2
:10000000680600202902000801070008F103000823
:10001000FD060008E3020008610800080000000077
:1000200000000000000000000000000005070008BC
:10003000E70200080000000003070008F5070008B9
:10004000430200084302000843020008430200087C
:100050004302000843020008E902000843020008C6
:100060002D03000871030008B103000843020008D3
:10007000430200084302000843020008430200084C
:10008000430200084302000843020008430200083C
:10009000430200084302000843020008430200082C
:1000A000430200084302000843020008430200081C
:1000B000430200084302000843020008430200080C
:1000C00043020008430200084302000843020008FC
:1000D00043020008430200084302000843020008EC
:1000E00043020008430200084302000843020008DC
:1000F00043020008430200084302000843020008CC
:1001000043020008430200084302000843020008BB
:1001100043020008430200084302000843020008AB
:10012000430200084302000843020008430200089B
:10013000430200084302000843020008430200088B
:10014000430200084302000843020008430200087B
:10015000430200084302000843020008430200086B
:10016000430200084302000843020008430200085B
:10017000430200084302000843020008430200084B
:10018000430200084302000800F002F800F03CF8C7
:100190000AA090E8000C82448344AAF10107DA45E2
:1001A00001D100F031F8AFF2090EBAE80F0013F0F8
:1001B000010F18BFFB1A43F0010318471407000092
:1001C00034070000103A24BF78C878C1FAD8520723
:1001D00024BF30C830C144BF04680C6070470000C1
:1001E0000023002400250026103A28BF78C1FBD840
:1001F000520728BF30C148BF0B6070471FB500F0E1
:1002000061FB1FBD10B510BD00F031F81146FFF7BE
:10021000F5FF00F053FB00F04FF803B4FFF7F2FFD7
:1002200003BC00F057F80000094880470948004720
:10023000FEE7FEE7FEE7FEE7FEE7FEE7FEE7FEE796
:10024000FEE7FEE704480549054A064B70470000F3
:10025000F9070008890100086800002068060020EE
:10026000680200206802002070477047704775469A
:1002700000F02CF8AE4605006946534620F0070012
:10028000854618B020B5FFF7DDFFBDE820404FF0F0
:1002900000064FF000074FF000084FF0000B21F070
:1002A0000701AC46ACE8C009ACE8C009ACE8C0093D
:1002B000ACE8C0098D46704710B50446AFF3008026
:1002C0002046BDE81040FFF7A8BF00000048704777
:1002D0000400002001491820ABBEFEE72600020002
:1002E000704700BFFEE7704710B50D48006840F04A
:1002F00001000B490860142000F0B4FA09480069B5
:1003000000F0010050B100BF0648006900F0010094
:100310000028F9D10221044800F0D2F910BD0000F4
:10032000143C0140000002400000002010B50D48C0
:10033000006840F004000B490860142000F092FAB5
:100340000948006900F0040050B900BF0648006980
:1003500000F004000028F9D00221044800F09AF9C6
:1003600010BD0000143C01400010024000000020BD
:1003700010B50D48006840F008000B4908601420D3
:1003800000F070FA0948006900F0080050B900BF99
:100390000648006900F008000028F9D04FF400700A
:1003A00000F09CF910BD0000143C01400010024018
:1003B00010B50D48006840F010000B49086014208B
:1003C00000F050FA0948006900F0100050B900BF71
:1003D0000648006900F010000028F9D04FF4806052
:1003E00000F07CF910BD0000143C014000100240F8
:1003F00000BFFEE710B500F00FF97F48006840F03D
:1004000001007D4908600846006840F0100008605F
:1004100079481430006840F480407749143108600E
:100420000846006840F4004008607448006820F006
:100430000300724908600846806840F00300886045
:100440000846C06840F00200C8600846C06820F056
:100450000100C8606A480068694908606948006826
:1004600040F001006749086066480838006840F0BD
:1004700001006449083908606348006820F440704E
:10048000614908600846806840F44070886008460A
:10049000C06840F48070C8600846C06820F40070EE
:1004A000C86057480838C06840F00401544808380C
:1004B000C1605448001D006840F010005149091DFA
:1004C000086050480838006840F010004D4908396D
:1004D00008604D48006820F0C0004B49086008469D
:1004E000806840F0C00088600846C06840F0400066
:1004F000C8600846C06820F08000C86040480068B6
:1005000040F480403E4908603E48001D006840F0CD
:1005100008003C49091D08603A480838006840F066
:1005200008003849083908603748006820F0300072
:10053000354908600846806840F030008860084609
:10054000C06840F01000C8600846C06820F0200075
:10055000C8602B48006840F4806029490860294839
:10056000001D006840F004002649091D0860254868
:100570000838006840F00400224908390860234820
:10058000006820F4E060214908600846006840F4F3
:10059000407008601E48007840F0F0011C4801706F
:1005A00040201C490860084690F80A0340F0E0012A
:1005B000184880F80A134FF480604FF0E021C1F82A
:1005C00000011348C01C007840F0D0011048C01C46
:1005D00001704FF400700F490860084690F8080356
:1005E00040F0C0010B4880F808134FF480704FF0C2
:1005F000E021C1F8000110BD303802400000024087
:1006000008380140083C0140001002400CED00E0B9
:1006100006E400E000E100E000B51848006840F0A2
:100620002000164908601648006840F4A0101449DC
:1006300008600846006820F420100860081D006863
:1006400020F4C060091D0860081D006840F47010A7
:10065000091D0860081D006820F42010091D0860AD
:100660000846006840F4A0100860081500F00AF879
:100670004FF4007000F006F800BD00003038024072
:1006800000140240024909680143014A11607047A1
:100690001414024030B504460D46002305E034F83A
:1006A0001300FFF7EFFF581CC3B2AB42F7DB30BDBE
:1006B000024909688143014A1160704714140240DD
:1006C00030B504460D46002305E034F81300FFF76B
:1006D000EFFF581CC3B2AB42F7DB30BD00B5034699
:1006E00005480068184018B91846FFF7CBFF02E02C
:1006F0001846FFF7DDFF00BD1414024000BFFEE7FF
:1007000070477047704700000CB5002001900090C2
:100710003448006840F480303249086000BF3148F6
:10072000006800F4003000900198401C019000988F
:1007300018B90198B0F5A04FF1D12A48006800F42B
:10074000003010B10120009001E0002000900098DE
:10075000012846D123484030006840F080502149AC
:10076000403108602048006840F440401E4908605D
:100770001C48083000681B490831086008460068BA
:1007800040F4004008600846006840F4A05008604B
:100790001648091F0860081F006840F08070091F94
:1007A000086000BF0F48006800F000700028F9D012
:1007B00040F205700E4908600A480830006820F0D1
:1007C00003000849083108600846006840F002004C
:1007D000086000BF03480830006800F00C000828DB
:1007E000F8D10CBD003802400070004008544007AA
:1007F000003C02407047000010B51548006840F406
:100800007000134908601348006840F00100114966
:10081000086000200F49083108600E4800680E4942
:1008200008400C4908600D48091D0860081F006851
:1008300020F48020091F0860002006490C31086060
:10084000FFF762FF4FF0006001498039086010BD7A
:1008500088ED00E000380240FFFFF6FE1030002473
:1008600000BFFEE700B5034603E04FF47A7000F0E6
:1008700005F8181EA3F10103F7D100BDA8214143DB
:100880004FF0E02251611146096941F00501116103
:100890001146096921F00201116100BF4FF0E0210A
:1008A000096901F480310029F8D04FF0E02109698D
:1008B00021F001014FF0E02211617047FFF79AFD2E
:1008C00000BFFEE74FF04070E1EE100A70470000F5
:1008D000F00800080000002004000000C401000827
:1008E000F40800080400002064060000E00100088D
:0408F00000040002FE
:040000050800018965
:00000001FF
