:020000040800F2
:1000000078040020A101000845060008FD0500084D
:100010004106000815020008150A0008000000004B
:100020000000000000000000000000004906000879
:10003000890400080000000047060008B901000814
:10004000BB010008BB010008BB010008BB010008A0
:10005000BB010008BB0100088D040008BB010008BB
:10006000BB010008CD04000865050008BB010008BD
:10007000BB010008BB010008BB010008BB01000870
:10008000BB010008BB010008BB010008BB01000860
:10009000BB010008BB010008BB010008BB01000850
:1000A000BB010008AD070008BB010008BB01000848
:1000B000BB010008BB010008BB010008BB01000830
:1000C000BB010008BB010008BB010008BB01000820
:1000D000BB0100080D080008BB010008BB010008B7
:1000E000BB010008BB010008BB010008BB01000800
:1000F000BB010008BB010008BB010008BB010008F0
:10010000BB010008BB010008BB010008BB010008DF
:10011000BB010008BB010008D5070008BB010008AF
:1001200019020008BB010008BB010008BB01000860
:10013000BB010008BB010008BB010008BB010008AF
:10014000BB010008BB010008BB010008BB0100089F
:1001500049020008BB0100087D020008BB0100083D
:10016000BB010008BB010008BB010008BB0100087F
:10017000BB010008BB010008BB010008BB0100086F
:10018000BB010008BB010008DFF810D000F030F818
:1001900000480047790C0008AFF300807804002085
:1001A0000648804706480047FEE7FEE7FEE7FEE711
:1001B000FEE7FEE7FEE7FEE7FEE7FEE73907000899
:1001C0008901000830B50B46014600202022012499
:1001D00009E021FA02F59D4205D303FA02F5491B15
:1001E00004FA02F52844151EA2F10102F1DC30BD2B
:1001F000064C074D06E0E06840F0010394E8070074
:1002000098471034AC42F6D3FFF7C2FFC00C000889
:10021000E00C000800BFFEE70A48006800F020007C
:1002200078B108480830006840F0200005490831DE
:10023000086004481030006820F0010001491031C6
:10024000086070470064024010B50948006800F477
:10025000006060B106480830006840F4006004495E
:10026000083108600348017803A000F0D5FB10BDF9
:100270000464024008000020256300000A4800686A
:1002800000F0006078B108480830006840F0006075
:100290000549083108600448B430006820F00100C6
:1002A0000149B4310860704704640240594800684D
:1002B00040F480005749086056481430006840F404
:1002C00080405449143108605348006840F01000E1
:1002D000514908600846006840F040000860084640
:1002E000006820F0800008600846006820F4007074
:1002F00008600846006840F48060086008460068AE
:1003000020F4C05008600846006820F4C04008602F
:100310000846006840F4403008600846006820F055
:10032000007008600846006820F080600860084699
:10033000006840F00060086037483038006840F0DE
:1003400010003549303908600846006820F0400048
:1003500008600846006820F08000086008460068D1
:1003600020F4007008600846006840F4806008606F
:100370000846006820F4C05008600846006820F471
:10038000C04008600846006840F4403008600846F5
:10039000006840F4807008600846006820F0007033
:1003A00008600846006820F0806008600846006821
:1003B00040F0006008601948808A40F080001749CA
:1003C00088820846808A40F040008882144800688D
:1003D00020F4E060124908600846006840F440706C
:1003E00008601048007840F0F0010E48017040208D
:1003F0000D4908600C48083890F8440340F0F001BB
:100400000948083880F8441310204FF0E021C1F863
:100410000801704730380240B864024000100140C3
:100420000CED00E046E400E008E100E010B5074B09
:1004300018601B1D1960054B1B1F1A601B1F1B68D2
:1004400043F00103014C083C236010BD906402405E
:1004500010B50B4B19601B1D1860094B1B1F1A6050
:1004600000BF084B1B8803F08003002BF9D0044B1E
:10047000083B1B6843F00103014C083C236010BD9E
:10048000C0640240001001407047000010B50D48E4
:10049000006840F001000B490860142000F0B8FB30
:1004A0000948006900F0010050B100BF064800692A
:1004B00000F001000028F9D14FF4806000F0B0F89E
:1004C00010BD0000143C01400000024010B5194866
:1004D000006840F008001749086017A000F09CFA77
:1004E000142000F095FB1548006900F00800F8B9E9
:1004F00000BF1248006900F008000028F9D0104839
:100500000078002814DD0E4800780A380C4908707D
:100510000846007800F044F90A48C46B084801789E
:1005200009A000F079FA21460AA000F075FA00BF90
:1005300010BD0000143C01402D2D0A0000100240A7
:10054000090000200000014064757479203D2025D9
:10055000640A0000737461747573203D2025640A79
:100560000000000010B51948006840F0100017495D
:10057000086017A000F050FA142000F049FB15485D
:10058000006900F01000F8B900BF1248006900F0DF
:1005900010000028F9D010480078642814DA0E48BA
:1005A00000780A300C4908700846007800F0F8F826
:1005B0000A48C46B0848017809A000F02DFA2146CA
:1005C0000AA000F029FA00BF10BD0000143C014051
:1005D0002B2B0A00001002400900002000000140FF
:1005E00064757479203D2025640A00007374617479
:1005F0007573203D2025640A0000000000BFFEE75F
:10060000024909680143014A11607047141402400D
:10061000024909688143014A11607047141402407D
:1006200000B5034605480068184018B91846FFF79A
:10063000E7FF02E01846FFF7EBFF00BD141402408D
:1006400000BFFEE770477047704700000CB5002000
:10065000019000903448006840F4803032490860CE
:1006600000BF3148006800F4003000900198401C41
:100670000190009818B90198B0F5A04FF1D12A481F
:10068000006800F4003010B10120009001E000206B
:1006900000900098012846D123484030006840F07F
:1006A00080502149403108602048006840F44040B3
:1006B0001E4908601C48083000681B490831086062
:1006C0000846006840F4004008600846006840F4AE
:1006D000A05008601648091F0860081F006840F015
:1006E0008070091F086000BF0F48006800F00070AC
:1006F0000028F9D040F205700E4908600A48083019
:10070000006820F0030008490831086008460068C6
:1007100040F00200086000BF03480830006800F0A5
:100720000C000828F8D10CBD0038024000700040D1
:1007300008544007003C024010B51548006840F4DA
:100740007000134908601348006840F00100114927
:10075000086000200F49083108600E4800680E4903
:1007600008400C4908600D48091D0860081F006812
:1007700020F48020091F0860002006490C31086021
:10078000FFF764FF4FF0006001498039086010BD39
:1007900088ED00E000380240FFFFF6FE1030002434
:1007A0000149C86370470000000001400848008A02
:1007B00000F0010050B10648008A20F00100044911
:1007C00008820846008820F0010008807047000079
:1007D0000000014010B50848008A20F001000649D9
:1007E00008820648016806A000F016F90348006870
:1007F000401C0249086010BD001000400C000020A1
:10080000436F756E74203D202564000000B51148CB
:10081000008800F0200058B10E4880880E490F4A29
:10082000127888540D480078401C0C49087010E07C
:100830000848008800F0100058B1064800880548B4
:10084000808806480178044800F0CAF8002003496F
:10085000087000BD00100140140000200A000020B4
:1008600010B500EE900AF8EE600A9FED571AC1EE3F
:10087000201AB0EE610AFCEEC00A10EE901A00EEEB
:10088000901AF8EE600A30EE601AF3EE001AF6EEF7
:10089000000A41EE210AFCEEE00A10EE902A4B4BD2
:1008A0001B6843F00103494C2360484B14331B6819
:1008B00043F01003454C14342360454B5B6A43F00E
:1008C0007004434B5C625B6A43F4E064404B5C62DF
:1008D0001B6843F400233E4C236023461B6823F42B
:1008E0008023236023465B6823F400736360234600
:1008F0009B6843F44023A3602346DB6843F48023D2
:10090000E3602346DB6823F40023E36023461B688F
:1009100043F40013236023461B6823F480132360F1
:1009200023465B6823F48063636023469B6843F43B
:100930004013A3602346DB6843F48013E36023463F
:10094000DB6823F40013E36042EA0113214C2381A6
:1009500023469B8943F00C03A38123469B8943F0E4
:100960003003A38123469B8923F48053A38123462C
:100970009B8923F48063A38123461B8A23F440537D
:10098000238223469B8943F40053A3810F4B1433E6
:100990001B6843F480430D4C1434236023461B68CA
:1009A00043F4004323600C4B1B6823F4E0630A4CC0
:1009B000236023461B6843F440732360074B1B7876
:1009C000064C237010BD0000A037A04A303802400A
:1009D00000000240001001400CED00E025E400E0C2
:1009E00010B503460C46002204E0985C00F006F8BF
:1009F000501CC2B2A242F8DB10BD000000BF044987
:100A0000098801F080010029F9D0014988807047E8
:100A10000010014000BFFEE70FB4054B10B503A95D
:100A2000044A029800F018F810BC5DF814FB0000AE
:100A3000690C00081000002002E008C8121F08C15D
:100A4000002AFAD170477047002001E001C1121F4F
:100A5000002AFBD1704700002DE9FF4F8BB09A466A
:100A60000F460546002606E025280BD052460D9974
:100A700090476D1C761C28780028F5D10FB03046C1
:100A8000BDE8F08F0024A0460122604900E0044345
:100A900015F8013F203B02FA03F00842F7D128780D
:100AA0002E2817D115F8010F44F004042A280ED07F
:100AB0006FF02F022878A0F1300109290AD808EB3D
:100AC000880102EB410100EB01086D1CF2E757F8C9
:100AD000048B6D1C287869283ED006DC0028CDD018
:100AE00063280BD0642804D136E0732810D0752811
:100AF0004BD052460D999047761C85E017F8040BB1
:100B00008DF8000000208DF80100E946012003E087
:100B100057F8049B4FF0FF3061074FF0000401D4F9
:100B20000AE0641C44450DDA8442FADB19F804102B
:100B30000029F6D106E0641C8442FCDB19F804109D
:100B40000029F8D1264404E019F8010B52460D990A
:100B50009047641EF8D257E001CF4FF00A0B0028EF
:100B600002DA40422D2102E0210504D52B218DF827
:100B70002410012103E0E10705D02021F7E70DF162
:100B8000200908910CE00021F9E701CF4FF00A0B92
:100B9000F9E75946FFF716FB01F1300209F8012D7C
:100BA0000028F6D1ADEB090000F1200B600701D45D
:100BB0004FF00108D84502DDA8EB0B0000E0002053
:100BC0008046002406E009A85246005D0D99904732
:100BD000641C761C08988442F5DB04E03020524601
:100BE0000D999047761CB8F10001A8F10108F5DCD9
:100BF00005E019F8010B52460D999047761CBBF1A0
:100C00000001ABF1010BF4DC6D1C34E70928010095
:100C100000B5034603E04FF47A7000F005F8181EA3
:100C2000A3F10103F7D100BDA82141434FF0E02219
:100C300051611146096941F00501116111460969C7
:100C400021F00201116100BF4FF0E021096901F4B8
:100C500080310029F8D04FF0E021096921F001012D
:100C60004FF0E0221161704700B502460B46D0B24A
:100C7000FFF7C4FE104600BD4FF4E130FFF7F0FD72
:100C8000FFF714FB07A0FFF7C7FE082209490A482F
:100C9000FFF7DEFB012209490648FFF7C7FB00BF4B
:100CA000FEE7000068656C6C6F2120444D41210A0D
:100CB0000000000004100140000000200800002097
:100CC000E00C00080000002014000000380A0008B2
:100CD000F40C00081400002064040000480A000816
:100CE00061626364656667680032000000000000AE
:040CF0000000000000
:040000050800018965
:00000001FF
