:020000040800F2
:1000000080040020A10100080D0C0008C50B0008A9
:10001000090C0008C90900087D1000080000000054
:10002000000000000000000000000000110C0008AB
:10003000510A0008000000000F0C0008B901000878
:10004000BB010008BB010008BB010008BB010008A0
:10005000BB010008BB010008550A0008BB010008ED
:10006000BB010008950A00082D0B0008BB01000821
:10007000BB010008BB010008BB010008BB01000870
:10008000BB010008BB010008BB010008BB01000860
:10009000BB010008BB010008BB010008BB01000850
:1000A000BB010008750D0008BB010008BB0100087A
:1000B000BB010008BB010008BB010008BB01000830
:1000C000BB010008BB010008BB010008BB01000820
:1000D000BB010008750E0008BB010008BB01000849
:1000E000BB010008BB010008BB010008BB01000800
:1000F000BB010008BB010008BB010008BB010008F0
:10010000BB010008BB010008BB010008BB010008DF
:10011000BB010008BB0100089D0D0008BB010008E1
:10012000CD090008BB010008BB010008BB010008A5
:10013000BB010008BB010008BB010008BB010008AF
:10014000BB010008BB010008BB010008BB0100089F
:10015000ED090008BB010008210A0008BB010008E6
:10016000BB010008BB010008BB010008BB0100087F
:10017000BB010008BB010008BB010008BB0100086F
:10018000BB010008BB010008DFF810D000F0A4FAA2
:1001900000480047B5190008AFF300808004002034
:1001A0000648804706480047FEE7FEE7FEE7FEE711
:1001B000FEE7FEE7FEE7FEE7FEE7FEE7010D0008CB
:1001C000890100082DE9FE4F804681EA0300C00F37
:1001D0000C46009021F0004123F00045B8EB0200EE
:1001E000A94105D24046214690461C460B46024690
:1001F00023F00040104347D0270DC7F30A00C3F394
:100200000A510290401A019040286BDAC3F31300A0
:1002100040F4801B0098924620B10023D2EB030AE1
:1002200063EB0B0B01985946C0F14002504600F0B9
:10023000A5F906460D4650465946019A00F0ADF91B
:1002400010EB08006141002487EA115284EAE77349
:100250001A4340D0009A62B3019A012A4FEA07522A
:1002600015DC001B61EB02014FF0004202EA07526D
:10027000CDE90042001C41F5801132462B4600F0CA
:10028000ADF903B0BDE8F08F40462146F9E7001B09
:1002900061EB0201001C41F5801300185B4120183E
:1002A000A2F5001747EB030140EAD570B6196D417E
:1002B00011E06D084FEA360645EAC0754FEA07526D
:1002C000001B61EB0201001C41F5801149084FEA57
:1002D00030000019514132462B4603B0BDE8F04FC3
:1002E00000F06DB90098012240000023D0EB02021B
:1002F00063EBE073009821464FEAE074B8EB00002E
:1003000061EB0401E9E783F000435BE781F0004122
:1003100058E72DE9FE4F81EA030404F0004421F080
:10032000004100944FF0000B23F0004350EA010419
:100330005ED052EA03045BD0C3F30A54C1F30A55FA
:100340002C44A4F2F3340194A0FB0254C1F3130132
:1003500041F48011C3F3130343F4801301FB0244FF
:1003600000FB034E840A970A44EA815447EA835704
:10037000A4FB076802958D0A05FB07854FEA932CBD
:1003800004FB0C542705029D4FEA065847EA16372E
:10039000B5EB08056EEB070C870E920E47EA811746
:1003A00042EA8312A7FB0201B6EB0B0164EB0004E7
:1003B0002B0D43EA0C335E1844EB1C50DA465146D1
:1003C000E7FB0201C5F313044FEA0B3343EA14536E
:1003D0004FEA0432019C43EA0603A4F10C040294A0
:1003E000009CCDE900B400F0F9F803B0BDE8F08F4F
:1003F00000200146F9E72DE9F04D81EA030404F0FD
:10040000004B21F0004514464FF0000A23F0004154
:1004100050EA050220D054EA01021DD0C5F30A5764
:100420000246C5F31303C1F31300C1F30A5640F4A7
:10043000801543F48013A7EB0608101BD64608F27C
:10044000FD3873EB050002D308F1010801E09218B2
:100450005B41B8F1000F03DA00200146BDE8F08DE2
:1004600000204FF48011064684460EE0171B73EB04
:10047000050705D3121B63EB050306434CEA010C89
:1004800049084FEA300092185B4150EA0107EDD16C
:1004900052EA030012D082EA040083EA050108430D
:1004A00005D0101BAB4106D20122002306E000223A
:1004B0004FF0004302E06FF0010253101AEB060008
:1004C0004CEB085110EB0A0041EB0B01BDE8F04D7D
:1004D00000F075B80EB540F2334102910021CDE92C
:1004E00000110A460B4600F079F803B000BD30B5A4
:1004F0000B46014600202022012409E021FA02F5E2
:100500009D4205D303FA02F5491B04FA02F528447B
:10051000151EA2F10102F1DC30BD2DE9F05F0546A8
:10052000002092469B4688460646814640241BE0B2
:10053000284641464746224600F0E0F853465A46D0
:10054000C01A914110D311461846224600F016F801
:100550002D1A67EB01084F4622460120002100F0CA
:100560000DF817EB00094E41201EA4F10104DFDC59
:10057000484631462A464346BDE8F09F202A04DB20
:10058000203A00FA02F1002070479140C2F12003A6
:1005900020FA03F3194390407047202A06DBCB175B
:1005A000203A41FA02F043EAE07306E041FA02F32E
:1005B000D040C2F12002914008431946704710B55F
:1005C000141E73F1000408DA401C41F10001921876
:1005D0005B411A4301D120F0010010BD2DE9F04D1F
:1005E00092469B4611B1B1FA81F202E0B0FA80F274
:1005F00020329046FFF7C2FF04460F4640EA0A0049
:1006000041EA0B0153465A46084313D0114653EAB8
:10061000010019D0C8F14002504600F06FF80546BD
:100620000E46504659464246FFF7A8FF084305D0FC
:10063000012004E020463946BDE8F08D0020054346
:1006400046EAE0762C4337430A986305E40AA0EBB8
:1006500008000022FD0A44EA47540A3002D500206F
:100660000146E9E7010510196941DDE9084500196E
:100670006941BDE8F04DA2E7C1F30A52C1F313018D
:1006800040F2FF3341F480119A4202DA0020014621
:10069000704740F233439A42A2F2334202DC5242A4
:1006A00000F02CB8FFF76ABF30B5041E71F10004EA
:1006B00004DB4FF00044404264EB0101141E73F16F
:1006C000000405DB1C464FF00043524263EB040379
:1006D000994208BF904230BD064C074D06E0E068E5
:1006E00040F0010394E8070098471034AC42F6D379
:1006F000FFF74EFD781B0008981B0008202A04DB3A
:10070000203A21FA02F00021704721FA02F3D0408A
:10071000C2F120029140084319467047934800688F
:1007200040F480709149086090481438006840F0A7
:1007300001008E49143908608D48006840F00300BC
:100740008B4908600846006840F00C0008600846C5
:10075000006840F0300008600846006840F0C000C3
:1007600008600846006840F4407008600846006869
:1007700040F4406008607F48006840F480307E4963
:10078000C1F804030846D0F8040340F40030C1F86F
:1007900004030846406840F480704860084640689A
:1007A00020F0407048600846806840F00200886091
:1007B0000846806820F4806088600846806820F4DD
:1007C000006088600846806820F0405088600846D5
:1007D000006920F0070008610846006920F0380031
:1007E00008610846006920F4E07008610846006965
:1007F00020F4606008610846006920F4E040086168
:100800000846006920F4603008610846C06A20F498
:100810007000C8620846C06A40F4A000C86208467A
:10082000406B20F01F0048630846406B4863084651
:10083000406B20F4787048630846406B40F020001D
:1008400048630846406B20F4F84048630846406B14
:1008500040F4006048630846406B20F47820486309
:100860000846406B40F4C03048630846406B20F0B7
:10087000F87048630846406B40F4800048630846BF
:10088000406B20F0785048630846406B40F0206091
:1008900048630846806840F4807088600846806835
:1008A00040F4007088600846406840F020004860CE
:1008B0000846806840F0010088602C4814380068C1
:1008C00040F480002949143908602C48006840F041
:1008D00010002A4908600846006820F0C00008603F
:1008E0000846006840F4807008600846006820F4FC
:1008F000007008600846006840F4806008600846A0
:10090000006840F4006008600846006820F48050E9
:1009100008600846006840F4005008600846006817
:1009200020F4804008600846006840F440300860C9
:100930000846006820F0606008601148006820F4F4
:10094000E0600F4908600846006840F440700860A5
:100950000C4890F8380340F0F0010A4880F838134A
:100960004FF080700749091D086070474438024005
:1009700000000240042301400020014010640240B6
:100980000CED00E000E100E00C480D4908600D4866
:10099000091D086006200A49091F0860081F006831
:1009A00040F00100091F086004484C38806840F09E
:1009B000804002494C398860704700004C2001405B
:1009C000186402400C00002000BFFEE706480068E3
:1009D00000F0200038B104480830006840F02000E2
:1009E00001490831086070470064024010B50948A9
:1009F000006800F4006060B106480830006840F408
:100A000000600449083108600348017803A000F041
:100A100037FB10BD046402400C0000202563000079
:100A20000A48006800F0006078B1084808300068A3
:100A300040F000600549083108600448B43000689F
:100A400020F001000149B43108607047046402409D
:100A50007047000010B50D48006840F001000B49D8
:100A60000860142000F071FF0948006900F00100DF
:100A700050B100BF0648006900F001000028F9D11C
:100A80004FF4806000F0B0F810BD0000143C01404D
:100A90000000024010B51948006840F008001749EE
:100AA000086017A000F0ECFA142000F04EFF154883
:100AB000006900F00800F8B900BF1248006900F0B2
:100AC00008000028F9D010480078002814DD0E48EE
:100AD00000780A380C4908700846007800F044F99C
:100AE0000A48C46B0848017809A000F0C9FA2146F9
:100AF0000AA000F0C5FA00BF10BD0000143C014080
:100B00002D2D0A00001002400000002000000140CE
:100B100064757479203D2025640A00007374617443
:100B20007573203D2025640A0000000010B51948A7
:100B3000006840F010001749086017A000F0A0FA04
:100B4000142000F002FF1548006900F01000F8B909
:100B500000BF1248006900F010000028F9D01048CA
:100B60000078642814DA0E4800780A300C490870BE
:100B70000846007800F0F8F80A48C46B0848017885
:100B800009A000F07DFA21460AA000F079FA00BF22
:100B900010BD0000143C01402B2B0A000010024045
:100BA000000000200000014064757479203D20257C
:100BB000640A0000737461747573203D2025640A13
:100BC0000000000000BFFEE7024909680143014A36
:100BD0001160704714140240024909688143014AB8
:100BE000116070471414024000B5034605480068C0
:100BF000184018B91846FFF7E7FF02E01846FFF75C
:100C0000EBFF00BD1414024000BFFEE770477047C1
:100C1000704700000CB50020019000903448006837
:100C200040F480303249086000BF3148006800F469
:100C3000003000900198401C0190009818B901986C
:100C4000B0F5A04FF1D12A48006800F4003010B18F
:100C50000120009001E0002000900098012846D17A
:100C600023484030006840F08050214940310860FE
:100C70002048006840F440401E4908601C48083085
:100C800000681B49083108600846006840F40040CD
:100C900008600846006840F4A05008601648091F24
:100CA0000860081F006840F08070091F086000BFDE
:100CB0000F48006800F000700028F9D040F205707D
:100CC0000E4908600A480830006820F0030008490F
:100CD000083108600846006840F00200086000BF64
:100CE00003480830006800F00C000828F8D10CBD5B
:100CF000003802400070004008544007003C0240A9
:100D000010B51548006840F4700013490860134896
:100D1000006840F001001149086000200F490831C7
:100D200008600E4800680E4908400C4908600D48EC
:100D3000091D0860081F006820F48020091F086052
:100D4000002006490C310860FFF764FF4FF0006097
:100D500001498039086010BD88ED00E0003802408C
:100D6000FFFFF6FE103000240149C8637047000001
:100D7000000001400848008A00F0010050B1064818
:100D8000008A20F00100044908820846008820F00B
:100D90000100088070470000000001400548008AFB
:100DA00020F001000349088203480068401C024902
:100DB0000860704700100040040000201A480068D6
:100DC00040F4804018490860081F006840F0100097
:100DD000091F086053201549088540F2E730C862B2
:100DE0000846808940F0010088811148006820F49D
:100DF000E0600F4908600846006840F440700860F1
:100E00000C48007840F0F0010A4801704FF480006F
:100E1000094908600548008840F00100034908803E
:100E20000020064908607047443802400010004026
:100E30000CED00E036E400E004E100E004000020F6
:100E40000021044A116000BF024909688142FBD3B6
:100E5000704700000400002000B5034603E04FF493
:100E60007A70FFF7EDFF181EA3F101018BB2F6D1E6
:100E700000BD000000B51148008800F0200058B106
:100E80000E4880880E490F4A127888540D48007821
:100E9000401C0C49087010E00848008800F0100061
:100EA00058B10648008805488088064801780448FB
:100EB00000F0CAF800200349087000BD001001408E
:100EC000180000200100002010B500EE900AF8EE96
:100ED000600A9FED571AC1EE201AB0EE610AFCEECF
:100EE000C00A10EE901A00EE901AF8EE600A30EE8A
:100EF000601AF3EE001AF6EE000A41EE210AFCEE4B
:100F0000E00A10EE902A4B4B1B6843F00103494C5A
:100F10002360484B14331B6843F01003454C1434D2
:100F20002360454B5B6A43F07004434B5C625B6A31
:100F300043F4E064404B5C621B6843F400233E4C86
:100F4000236023461B6823F48023236023465B68C9
:100F500023F40073636023469B6843F44023A3603B
:100F60002346DB6843F48023E3602346DB6823F4F5
:100F70000023E36023461B6843F4001323602346E9
:100F80001B6823F48013236023465B6823F480638B
:100F9000636023469B6843F44013A3602346DB68E9
:100FA00043F48013E3602346DB6823F40013E3601B
:100FB00042EA0113214C238123469B8943F00C0311
:100FC000A38123469B8943F03003A38123469B8959
:100FD00023F48053A38123469B8923F48063A38158
:100FE00023461B8A23F44053238223469B8943F4E0
:100FF0000053A3810F4B14331B6843F480430D4C03
:101000001434236023461B6843F4004323600C4BD5
:101010001B6823F4E0630A4C236023461B6843F4F7
:1010200040732360074B1B78064C237010BD0000F3
:10103000A037A04A303802400000024000100140B2
:101040000CED00E025E400E010B503460C4600225C
:1010500004E0985C00F006F8501CC2B2A242F8DB33
:1010600010BD000000BF0449098801F0800100297B
:10107000F9D00149888070470010014000BFFEE7A9
:101080000FB4054B10B503A9044A029800F0DAF832
:1010900010BC5DF814FB0000A31900080800002034
:1010A00002E008C8121F08C1002AFAD17047704731
:1010B000002001E001C1121F002AFBD1704700008F
:1010C0002DE9FF5F82B00021DDE90430020DDDF87B
:1010D00040B0034318D044F61050A2F2FF3242430E
:1010E0001514119801281FD0A5EB0B00401C5FEAD6
:1010F000000A4FF000064E4FDFF83891B0465046D8
:1011000015D5CAF1000413E0119801244AA301285F
:1011100001D16FEA0B010298119AC0E90031C0E9D0
:10112000024206B0BDE8F09FCBF10000DFE70446C5
:101130000021404A491842EB0450CDE9001012E06A
:10114000E00707D032463B4640464946FFF7E1F804
:101150008046894632463B4610461946FFF7D9F885
:1011600006460F466410002CEAD1DDE90401DDE9F2
:101170000023BAF1000F06DAFFF7CBF842464B46E0
:10118000FFF7C7F805E0FFF736F942464B46FFF791
:1011900032F904460E460022284BFFF785FA03D8A1
:1011A0004FF0FF30014607E00022254B2046314634
:1011B000FFF708F8FFF760FA102409E0002C0ADBBB
:1011C0000A220023FFF7A9F9039B30321A55641E47
:1011D00050EA0102F2D1641C039AC4F111031444D1
:1011E000119A012A03D0012208430DD10AE00843D5
:1011F00004D000204FF0110B119072E7A3EB0B0508
:101200006D1E0DE05B4504DD4FF0000205F10105A8
:1012100004E003DA4FF00002A5F10105002AECD04A
:1012200002981199C0E90231C0E9004579E7000050
:10123000000014400000F03F300000000000F043C8
:101240000000E03F2DE9FF4F95B09A4688460646DC
:101250000025EEE1252877D100242746F94A01210F
:10126000039400E0044316F8013F203B01FA03F029
:101270001042F7D130782A2811D06FF02F03307840
:10128000A0F13002092A16D8039A44F0020402EBB6
:10129000820203EB42021044761C0390EFE758F8F9
:1012A000042B0392002A03DA504244F400540390C2
:1012B00044F00204761C30782E2816D116F8010F5F
:1012C00044F004042A280DD06FF02F023078A0F1EA
:1012D0003003092B09D807EB870302EB4303C71838
:1012E000761CF3E758F8047B761C30786C280FD016
:1012F00006DC4C2817D068280DD06A2814D104E0E9
:10130000742810D07A280FD10DE044F400140AE0BC
:1013100044F4801401E044F440147278824202D113
:1013200004F58014761C761C307866280BD013DC0C
:10133000582877D009DC002875D04528F6D04628F3
:10134000F4D047281AD193E118E0632835D06428F7
:1013500079D0652812D18BE1702873D008DC67281A
:10136000F1D069286FD06E280DD06F2806D1ACE07F
:1013700073282CD0752874D0782853D052461799EA
:1013800090476D1C54E1C4F30250022809D0032891
:101390000DD0D8F8001004280DD00D6008F1040815
:1013A00046E1D8F80010EA17C1E90052F6E7D8F88C
:1013B00000100D80F2E70D70F0E718F8041B8DF8AF
:1013C000001000208DF80100EB46012003E058F8E2
:1013D00004BB4FF0FF3061074FF0000102D40DE075
:1013E00009F101018946B9420FDA8145F8DB1BF8A2
:1013F00009100029F4D108E009F101018946814270
:10140000FADB1BF809100029F6D103985346A0EB2C
:10141000090721463846179A00F080FA284400EB65
:10142000090507E044E008E10DE01BF8010B524616
:1014300017999047B9F10109F7D25346214638462A
:10144000179AF2E039E00A21C4F302524FF0000B80
:101450000091022A06D058F8040BC117032A09D0BC
:101460000AE023E008F1070020F00702F2E8020199
:10147000904605E000B2C117042A01D140B2C1175D
:10148000002906DA0A460021404261EB02012D22C2
:1014900002E0220504D52B228DF80420012203E06E
:1014A000E20701D02022F7E7914657E00A2100E049
:1014B00010214FF0000B00910BE010214FF0000BBA
:1014C00044F004040827009103E008204FF0000BCB
:1014D0000090C4F30252022A05D058F8040B0021F0
:1014E000032A08D008E008F1070020F00702F2E81C
:1014F0000201904603E080B2042A00D1C0B24FF04E
:10150000000922072AD53278702A07D0DDF800C0FA
:101510008CF0100C5CEA0B0C05D00EE040228DF82C
:101520000420012208E050EA010306D030238DF8A0
:1015300004308DF8052002229146009B83F00803B9
:1015400053EA0B030AD150EA010201D1620705D523
:1015500030228DF804204FF001097F1E3278582A7E
:1015600004D039A20C920CAA02920BE03BA2F9E73C
:101570005B46009AFEF7D1FF0C9B9B5C029A521EC1
:101580000292137050EA0102F2D1029804A9081ADB
:1015900000F1200B600702D524F4803400E001271D
:1015A0005F4502DDA7EB0B0000E0002000EB0B0124
:1015B000009003984944401A0390E00306D4534630
:1015C0002146179A039800F0A9F90544002706E080
:1015D00001A85246C05D179990476D1C7F1C4F456E
:1015E000F6DBE0030CD553462146179A039800F02A
:1015F00095F9054404E030205246179990476D1C38
:101600000099481E00900029F5DC08E00298029934
:1016100052460078491C0291179990476D1CBBF106
:101620000001ABF1010BF1DC5BE100F065F9054471
:10163000761C307800287FF40DAE19B02846BDE83E
:10164000F08F00000928010030313233343536374D
:1016500038396162636465660000000030313233FE
:10166000343536373839414243444546000000009E
:10167000600700D4062708F1070020F00700F0E813
:101680000223804603F0004C5FEA0C0001D097A0D3
:1016900009E0200501D596A005E0E00701D095A05E
:1016A00001E0AFF24C001390307823F0004365283E
:1016B0000CD006DC452809D046281DD047287FD10C
:1016C0003BE0662818D067287AD136E00021112F38
:1016D00001DB112000E0781CCDE9000104A90CA871
:1016E000FFF7EEFCDDE90D010C9A4FF0000B07F15E
:1016F0000109109200914EE04FF000400097CDE9B3
:10170000011004A90CA8FFF7DBFCDDE90D020C9B1E
:101710000F994FF0000B91461093009211B9791C6C
:1017200000EB0109B7EB090003D4C0F1FF3B07F15F
:101730000109A9EB0700019042E0012F00DA01271F
:101740000021112F01DD112000E03846CDE9000114
:1017500004A90CA8FFF7B4FCDDE90D010C9A009177
:101760004FF0000BB946109221070FD4009A4A455A
:1017700003DA914601E0A9F10109B9F1010F05DD94
:10178000109AA9F10101515C3029F4D0B84202DA73
:1017900010F1040F03DA0121CDE9011010E0002857
:1017A00003DC8344A9EB000102E0411C494500DD54
:1017B0008946A0EB0B00401C01904FF000400290C6
:1017C000200705D40198484502DB4FF0FF30019017
:1017D00000208DF84B0002980DF14B07B0F1004F3F
:1017E00025D002200C902B200D90029800280CDAB6
:1017F000404202902D200D9007E00A210298FEF74A
:1018000076FE3031029007F8011D0C99481E0C90AD
:101810000029F2DC02980028EFD1791E0D9808709B
:10182000307800F0200040F0450007F8020D11A8C4
:10183000C01BC01D02901398007800B1012000EB7E
:101840000901019801EBE071029801440398401AE4
:10185000401E0390E00306D453462146179A03988E
:1018600000F05CF805441398007818B152461799B7
:1018700090476D1CE00323D553462146179A0398E1
:1018800000F04CF805441BE0BBF1000F07DB0098AB
:10189000584504DD1098179910F80B0001E01799CE
:1018A00030205246904701980BF1010B401E05F184
:1018B0000105019004D12E205246179990476D1CC6
:1018C000B9F10001A9F10109DEDC05E017F8010B0F
:1018D0005246179990476D1C0299481E02900029A4
:1018E000F4DC53462146179A03989EE62D0000002B
:1018F0002B000000200000002DE9F04104460025E7
:101900001E461746880404D405E039462020B04717
:101910006D1C641EF9D52846BDE8F0812DE9F04123
:10192000044600251E469046C80301D5302700E036
:101930002027880404D505E041463846B0476D1C91
:10194000641EF9D52846BDE8F08100B5034603E0E2
:101950004FF47A7000F005F8181EA3F10103F7D1D7
:1019600000BDA82141434FF0E022516111460969B1
:1019700041F0050111611146096921F0020111616F
:1019800000BF4FF0E021096901F480310029F8D04F
:101990004FF0E021096921F001014FF0E0221161CF
:1019A000704700B502460B46D0B2FFF75BFB10460E
:1019B00000BD00002DED068B4FF4E130FFF784FAF7
:1019C000FFF7FCF9FEF7AAFEFEF7DEFFA4E053499D
:1019D0000888FEF77FFD41EC1A0B9FED510B53EC8D
:1019E000102BFEF796FC41EC190B9FED4F0B53ECBF
:1019F000102BFEF700FD41EC180B53EC182B4CA0FC
:101A0000FFF73EFB45494888FEF764FD41EC1A0BA1
:101A10009FED430B53EC102BFEF77BFC41EC190BB5
:101A20009FED410B53EC102BFEF7E5FC41EC180B3E
:101A300053EC182B41A0FFF723FB38498888FEF7A9
:101A400049FD41EC1A0B9FED360B53EC102BFEF7C2
:101A500060FC41EC190B9FED340B53EC102BFEF79F
:101A6000CAFC41EC180B53EC182B37A0FFF708FB0E
:101A70002A49C888FEF72EFD41EC1A0B9FED280B72
:101A800053EC102BFEF745FC41EC190B9FED260B98
:101A900053EC102BFEF7AFFC41EC180B53EC182B5A
:101AA0002CA0FFF7EDFA1D490889FEF713FD41EC64
:101AB0001A0B9FED1B0B53EC102BFEF72AFC41EC8D
:101AC000190B9FED190B53EC102BFEF794FC41EC16
:101AD000180B53EC182B22A0FFF7D2FA0F494889B4
:101AE000FEF7F8FC41EC1A0B9FED0D0B53EC102B9D
:101AF000FEF70FFC41EC190B9FED0B0B53EC102B79
:101B0000FEF779FC41EC180B53EC182B17A0FFF7EC
:101B1000B7FA0120FFF7A0F959E700000C000020F8
:101B20006666666666660A400000000000FEAF401A
:101B300056313D252E34660A0000000056323D2500
:101B40002E34660A0000000056333D252E34660A06
:101B50000000000056343D252E34660A00000000C7
:101B600056353D252E34660A0000000056363D25C8
:101B70002E34660A00000000981B000800000020B8
:101B80000C000000A0100008A41B00080C0000209E
:101B900074040000B01000083200000000000000D3
:041BA0000000000041
:040000050800018965
:00000001FF
